:020000040800F2
:1000000010050020010100081F180008EB1500086A
:100010001D180008A5020008051C000800000000CB
:100020000000000000000000000000006D18000843
:10003000A702000800000000411800086F1800081F
:100040001B0100081B0100081B0100081B01000820
:100050001B0100081B0100081B0100081B01000810
:100060001B0100081B0100081B0100081B01000800
:100070001B0100081B0100081B0100081B010008F0
:100080001B0100081B010008750100081B01000886
:100090001B0100081B0100081B010008A902000841
:1000A000411900084D1900081B0100081B01000838
:1000B0001B0100081B0100081B0100081B010008B0
:1000C0001B0100081B0100081B0100081B010008A0
:1000D0001B0100081B0100081B0100081B01000890
:1000E0001B0100081B0100081B010008DFF80CD0F1
:1000F00000F02EF800480047B51D0008100500204C
:100100000648804706480047FEE7FEE7FEE7FEE7B1
:10011000FEE7FEE7FEE7FEE7FEE7FEE7F918000868
:10012000ED00000830B50B460146002020220124D6
:1001300009E021FA02F59D4205D303FA02F5491BB5
:1001400004FA02F52844151EA2F10102F1DC30BDCB
:10015000064C074D06E0E06840F0010394E8070014
:1001600098471034AC42F6D3FFF7C4FF781E00085E
:10017000981E0008014800F01AB900001C00002079
:1001800070B5044600688168C943C9071CD18168FD
:1001900021F00101816000F05BFB05460FE000BF2C
:1001A00000F056FB401B022809D9A06A40F010005D
:1001B000A062E06A40F00100E062012070BD2068AA
:1001C0008068C043C007EBD0002070BD3148816912
:1001D00041F00401816130490A6822F470420A60EA
:1001E000816941F400718161C16841F40071C160AD
:1001F000C16821F40071C160416821F4404141604F
:10020000416841F40041416024480168244A11409A
:10021000016001680160016821F480710160001DC6
:10022000016821F002010160016821F46021016090
:10023000016841F460210160016841F480110160AE
:10024000016821F400610160144928310A6822F430
:1002500070020A600A6800220A6010490C310A68BC
:1002600022F470420A600A6842F460620A6001681F
:1002700041F001010160016841F00801016001687D
:100280000907FCD4016841F00401016001684907D5
:10029000FCD47047001002400008014004240140D3
:1002A000FFFFF000FEE77047202000F0D9B970474B
:1002B000F8B50024009490F824202546012A12D095
:1002C000012280F824204A681F23072A0DD20668DD
:1002D000776B521E02EB820293409F430B68934060
:1002E0001F43776319E00220F8BD06680D2A0AD281
:1002F000376BD21F02EB820293409F430B689340FF
:100300001F43376309E0F76A0D3A02EB820293401C
:100310009F430B6893401F43F7620A6807230668F0
:100320000A2A0AD3F7680A3A02EB420293409F4333
:100330008B6893401F43F76008E0376902EB420285
:1003400093409F438B6893401F4337610A68102A8C
:1003500001D0112A20D1124B02689A4217D193681A
:100360001B0219D4936843F40003936009681029B1
:1003700012D10C490C4A0968B1FBF2F101EB810181
:10038000490000E0491E00910029FBD104E0816A88
:1003900041F020018162012480F824502046F8BDFC
:1003A000002401401400002040420F00704710B5A7
:1003B000044600684168890626D50168890723D567
:1003C000A16AC90603D4A16A41F40071A1628168DF
:1003D000C1F34241072910D1E16871B9416821F0A8
:1003E00020014160A06A20F48070A062A06AC0046D
:1003F00003D4A06A40F00100A0622046FFF7D6FFB8
:1004000021686FF0120008602068416809062ED547
:10041000016849072BD5A16AC90603D4A16A41F432
:100420000051A1628168C1F30231072909D04168F6
:10043000490515D48168C1F34241072910D1E1680B
:1004400071B9416821F080014160A06A20F48050B8
:10045000A062A06AC00503D4A06A40F00100A062B7
:100460002046FFF724FF21686FF00C000860206829
:10047000416849060DD50068C0070AD0A06A40F45B
:100480008030A062204600F093F821686FF00100F0
:10049000086010BD2DE9F0414FF0000704003D4613
:1004A0007ED0A06A002628B9E66284F8246020463F
:1004B00000F080F82046FFF763FEA16A01F010010A
:1004C000014304D0A06A40F01000A06268E0A16A75
:1004D00021F4885141F00201A1626268E169E36898
:1004E0000A4347EA43010A43A1684FF48077B942BF
:1004F00008D0012906D00021D4F814C0BCF1010FA6
:1005000002D00AE03946F7E7F3B1A36A43F02003CB
:10051000A362E36A43F00103E3622368D3F804C0F3
:100520002CF4694C4CEA010CC3F804C023689968A8
:10053000DFF870C001EA0C0111439960A168B9426B
:100540000BD0012909D00CE0DFF85CC0A3690CEBEB
:1005500043330B4343F40061DFE7218A0D05A5F522
:1005600080152168CB6A23F470032B43CB6221688A
:1005700089680E4B1940914208D1E662A16A21F0C8
:10058000020141F00101A162BDE8F081A06A20F002
:10059000020040F01000A062E06A40F00100E0625A
:1005A0000120F1E7FDF7E1FF00E0FFFFFE0E1FFF76
:1005B0007047000000B500680F4985B0884218D127
:1005C0000E48816941F4007181618069694600F4D7
:1005D000007004900820009003200190084800F06B
:1005E0004BF800220221122000F0C6F9122000F080
:1005F000B7F905B000BD0000002401400010024022
:100600000008014070B5044600F022F90546601C60
:1006100002D004480078044400F01AF9401BA042BC
:10062000FAD370BD0800002010B520280FD1142087
:10063000FFF7E8FF2021074800F0FCF820B9064842
:10064000017829B10021017004492020086010BD03
:100650000121F8E7000801400000002014040140D7
:10066000044910B50A68024202D00860FFF7DCFFB7
:1006700010BD0000140401402DE9F84FDFF890A1EF
:1006800000220AF1040B144601274FF00F090BF169
:10069000040E00BF0B6807FA04F52B40AB4274D17F
:1006A000DFF870C14E68A6EB0C0866452BD00DDC58
:1006B000032E34D005DC36B3012E19D0022E2FD1F3
:1006C0001BE0112E16D0122E2AD119E0B8F5881F82
:1006D00019D006DCB8F5803F15D0B8F5801F1FD1C2
:1006E00011E0B8F5001F0ED0B8F5041F18D10AE0CC
:1006F000CA6815E0CA68121D12E0CA6808320FE025
:10070000CA680C320CE08A682AB1012A4FF008024C
:1007100003D0456104E0042202E0056100E000220C
:10072000FF2B01D8064601E000F104064FEA8405DC
:1007300001D9A5F12005D6F800C009FA05F82CEA80
:10074000080C02FA05F54CEA050CC6F800C04D6825
:10075000ED0057D5304DAE6946F00106AE61AD698A
:1007600024F0030605F0010500952C4D06EB050C61
:10077000DCF80850A6074FEA167809FA08F6B543E0
:10078000274EB04202D1002610E03BE0254EB04299
:1007900001D101260AE0244EB04201D1022605E033
:1007A000224EB04201D1032600E0042606FA08F6E4
:1007B0002E43CCF808604D68DAF80060ED0355462A
:1007C00001D51E4300E09E432E604D68DBF80060BB
:1007D000AD035D4601D51E4300E09E432E604D688B
:1007E000DEF80060ED02754601D51E4300E09E4331
:1007F0002E604D68AD020E4D2E6801D51E4300E0FF
:100800009E432E60641C102CFFF444AFBDE8F88FAB
:1008100000040140000011100010024000000140DF
:1008200000080140000C014000100140001401408C
:100830000C0401408068084000D001207047C26865
:100840004A40C26070470AB1016170470904FBE782
:100850000148806870470000080000200248816855
:10086000027811448160704708000020074810B5E5
:10087000016841F010010160032000F09DF80020A4
:1008800000F006F800F024F8002010BD002002401F
:1008900070B50D4D04464FF47A712878B1FBF0F035
:1008A0000A490968B1FBF0F000F0A3FB48B9102C2D
:1008B00007D200222146501E00F05EF800206C6036
:1008C00070BD012070BD0000080000201400002051
:1008D000214808B5816941F001018161816901F018
:1008E00001010091C16941F08051C161C06900F00E
:1008F00080500090032000F05FF8002211466FF056
:100900000B0000F039F8002211466FF00A0000F0E9
:1009100033F8002211466FF0090000F02DF8002294
:100920001146501F00F028F800221146101F00F059
:1009300023F800221146901E00F01EF800221146F6
:10094000501E00F019F80548416821F0E06141F0BF
:100950000071416008BD000000100240000001402D
:1009600000F01F02012191404009800000F1E020C9
:10097000C0F8001170470000F0B40E4B1B680C4625
:10098000C3F30223C3F10705042D00D90425191D63
:10099000072901D2002300E0DB1E012606FA05F13B
:1009A000491E214099409E40761E16403143F0BCBE
:1009B00000F036BF0CED00E0064900F007020868C1
:1009C0004FF6FF03184040EA0220034A1043086034
:1009D000704700000CED00E00000FA052DE9F84337
:1009E00005460078354CC00754D0E0690026C000A9
:1009F00008D4E06940F08050E061E069012600F031
:100A0000805000902E480168C90512D401688046C4
:100A100041F480710160FFF71BFF074605E000BF4E
:100A2000FFF716FFC01B642823D8D8F80000C005C4
:100A3000F6D5206A10F4407021D0A98801F44071E5
:100A400081421CD0206A1F49012220F440700A60B4
:100A500000220A602062C00711D0FFF7F9FE0746A6
:100A600041F2883808E000BFFFF7F2FEC11B4145A4
:100A700002D90320BDE8F883206A8007F4D5206AF4
:100A8000696820F44070084320621EB1E06920F0DC
:100A90008050E0612878800705D56068A96820F457
:100AA0004040084360602878C00605D56068E96862
:100AB00020F48000084360600020DBE70010024063
:100AC00000700040400442422DE9F047DFF83C81CD
:100AD00005460E46D8F8000000F00700B0420CD2E0
:100AE000D8F8001021F007013143C8F80010D8F8F9
:100AF000000000F00700B04263D12878444C800722
:100B000005D56068A96820F0F00008436060287887
:100B1000C00745D06868012816D02168022816D081
:100B2000890700294DDA616821F003010143616002
:100B3000FFF78EFE6968074641F2883001290FD021
:100B40000229814619D027E021688903E9E7890154
:100B5000E7E700BFFFF77CFEC11B494501D918E05C
:100B600081466068C0F381000128F3D118E000BF1E
:100B7000FFF76EFEC11B49450BD86068C0F38100CA
:100B80000228F5D10CE000BFFFF762FEC11B49450A
:100B900002D90320BDE8F087606810F00C0FF3D194
:100BA000D8F80010404601F00701B1420BD90168A6
:100BB00021F0070131430160006800F00700B042F6
:100BC00001D00120E6E72878400705D56068E9688C
:100BD00020F4E060084360602878000706D560686C
:100BE000296920F4605040EAC100606000F03CF8E0
:100BF0006168084AC1F30311515CC84006490860A6
:100C00000020FFF745FE0020C4E70000002002405E
:100C100000100240601E0008140000200148006817
:100C20007047000014000020044805490068496826
:100C3000044AC1F30221515CC840704714000020EF
:100C400000100240701E0008044805490068496809
:100C5000044AC1F3C221515CC8407047140000200F
:100C600000100240701E000812A185B00FC98DE867
:100C70000F0014A0144A006804905168134801F052
:100C80000C03042B10D0082B0ED1C1F38343C903EE
:100C90001DF803000AD5516804AAC1F34041515C14
:100CA0000A4A5043B0FBF1F005B070470849484389
:100CB000FAE7000002030405060708090A0B0C0DF9
:100CC0000E0F1010010200000010024000127A0006
:100CD00000093D002DE9F84F04460078B94DC007E2
:100CE00048D06868C0F38100012807D06868C0F365
:100CF0008100022809D16868C00306D528688003EE
:100D000038D5606800286FD034E06068B0F5803F67
:100D10000BD010B1B0F5A02F11D0286820F480308E
:100D20002860286820F4802002E0286840F48030A1
:100D30002860606888B1FFF78BFD064609E02868E7
:100D400040F480202860F0E7FFF782FD801B6428D4
:100D500075D828688003F7D50CE0FFF779FD0646C3
:100D600005E000BFFFF774FD801B6428F0D82868F9
:100D70008003F7D42078944E80074FF001094FF09C
:100D800000083BD5686810F00C0F07D06868C0F306
:100D90008100022809D16868C00306D4286880074A
:100DA00014D5206901281FD110E02069B0B1C6F820
:100DB0000090FFF74DFD074605E000BFFFF748FD37
:100DC000C01B0228C4D828688007F7D52868616945
:100DD00020F0F80040EAC10028600FE0C6F800806B
:100DE000FFF736FD074606E0E9E000BFFFF730FDFC
:100DF000C01B022823D828688007F7D42078000772
:100E00002CD57248A169D9B1C0F80090FFF720FD38
:100E1000074604E0FFF71CFDC01B02280FD8686AD4
:100E20008007F7D56A484FF4FA510068B0FBF1F03B
:100E3000009000BF0098411E0091FAD20EE080E0C1
:100E4000C0F80080FFF704FD074604E0FFF700FD4F
:100E5000C01B022875D8686A8007F7D4207840073D
:100E600060D5E8690027C00008D4E86940F08050E8
:100E7000E861E869012700F080500090554801685A
:100E8000C90513D40168834641F480710160FFF7FE
:100E9000DFFC824606E000BFFFF7DAFCA0EB0A00A9
:100EA00064284ED8DBF80000C005F5D5E0680128BD
:100EB0000AD008B1052813D0286A20F00100286262
:100EC000286A20F0040002E0286A40F0010028624D
:100ED000E06841F2883B98B1FFF7BAFC82460BE02C
:100EE000286A40F004002862EEE700BFFFF7B0FC7C
:100EF000A0EB0A0159455AD8286A8007F6D50CE0BC
:100F0000FFF7A6FC824605E0FFF7A2FCA0EB0A0172
:100F100059454CD8286A8007F6D41FB1E86920F0FB
:100F20008050E861E06988B36968C1F381010229F2
:100F300045D00228C6F8608004D0FFF789FC04463B
:100F400038E034E0FFF784FC074604E0FFF780FC5C
:100F5000C01B02282BD828688001F7D4206AB0F57E
:100F6000803F05D16868A16820F4003008436860BC
:100F7000D4E908010843696821F4741108436860E2
:100F8000C6F86090FFF764FC044606E015E000BF79
:100F9000FFF75EFC001B022809D828688001F7D5FE
:100FA0000BE000BFFFF754FC001B022802D903200E
:100FB000BDE8F88F28688001F4D40020F8E701200C
:100FC000F6E7000000100240000042428004424266
:100FD00014000020007000404FF0E0210428086950
:100FE00003D020F004000861704740F00400FAE7E5
:100FF000704710B5401EB0F1807F01D3012010BDB5
:101000004FF0E02460610F21601700F009FC002020
:10101000A06107202061002010BD10B5FFF7E8FF98
:1010200010BD7047704730B590F83C20012A20D0A1
:10103000012280F83C20022380F83D3003685C6880
:1010400024F070045C6003685C680D682C435C608D
:1010500003689C6824F080049C6003689C6849686D
:101060000C439C6080F83D20002180F83C1008462D
:1010700030BD022030BD10B5040003D094F83D000F
:1010800010B107E0012010BD002084F83C0020468C
:1010900000F00CF8022084F83D00211D206800F0CB
:1010A0005BFC012084F83D00002010BD08B50068FD
:1010B0000F4988421AD10F48816941F4006181616A
:1010C0008069002200F40060009001211820FFF7E1
:1010D00053FC1820FFF744FC002201211920FFF7E0
:1010E0004BFCBDE808401920FFF73ABC08BD0000E2
:1010F000002C0140001002400168CA6842F0010261
:10110000CA600068016841F0010101600020704779
:1011100070B5044690F83C00012817D0012584F8EA
:101120003C50022084F83D002068826822F077025B
:1011300022F47F4282600868502837D00DDC2028D6
:1011400059D005DC88B3102841D151E0022070BD90
:10115000302853D040283AD13FE060282ED0702864
:101160000BD0B0F5805F03D0B0F5005F2FD110E059
:101170002068816821F0070115E0CB68D1E90121E1
:10118000206800F01FFC2168886840F077008860C4
:101190001DE0CB68D1E90121206800F013FC206834
:1011A000816841F48041816011E01EE0CA684968AD
:1011B000206800F019FC5021206806E0CA684968E0
:1011C000206800F022FC6021206800F005FC84F813
:1011D0003D50002084F83C0070BDCA684968206812
:1011E00000F002FC40212068EFE700212068ECE7D6
:1011F00010212068E9E720212068E6E730212068F7
:10120000E3E72DE9F0410D46040003D094F83D00DA
:1012100018B108E00120BDE8F081002084F83C000E
:10122000204600F039F8022084F83D0020688168EB
:1012300021F007018160211D206800F08DFB2268EC
:1012400090689169166A2B68AF69034340F20330D6
:10125000814341EA0721A868EF6908434FF6FC4142
:101260008843E96840EA0720014328692F6A0001A2
:1012700040EA0730084369686D6926F0AA0646EA25
:10128000051529439360226890612068016201205E
:1012900084F83D000020BEE700B500680B4985B02A
:1012A000884211D10A48C16941F00401C161C06995
:1012B000694600F004000490C020009000200190D6
:1012C00002900448FFF7D8F905B000BD00080040BF
:1012D00000100240000C0140704770B504460068E1
:1012E00001694FF00005C943890715D4C168C94396
:1012F000890711D4E91E01610120207720688069E7
:101300008007204602D0FFF7E7FF04E000F098F8DE
:10131000204600F096F8257720680169C9434907FF
:1013200017D4C168C943490713D46FF004010161A0
:10133000022020772068806910F4407F204602D088
:10134000FFF7CAFF04E000F07BF8204600F079F8D0
:10135000257720680169C943090716D4C168C943C4
:10136000090712D46FF0080101610420207720687A
:10137000C0698007204602D0FFF7AEFF04E000F00E
:101380005FF8204600F05DF8257720680169C943C1
:10139000C90617D4C168C943C90613D46FF0100138
:1013A0000161082020772068C06910F4407F204642
:1013B00002D0FFF791FF04E000F042F8204600F071
:1013C00040F8257720680169C943C90708D1C16879
:1013D000C943C90704D1891E0161204600F032F8D3
:1013E00020680169C943090609D4C168C9430906CF
:1013F00005D46FF0800101612046FFF712FE2068DE
:101400000169C943490609D4C168C943490605D4DD
:101410006FF040010161204600F02CF8206801695E
:10142000C94389060BD4C168C943890607D46FF044
:10143000200101612046BDE87040FFF7F3BD70BD9B
:1014400070477047084988420CD108484188491CB8
:1014500041804188142905D1002141801021044890
:10146000FFF7EDB9704700004C000020000000209D
:1014700000080140704770B5040004D094F83900AA
:10148000002510B106E0012070BD84F838502046D8
:1014900000F022F8242084F839002068C16821F483
:1014A0000051C160204600F0C3FA2068016921F4B0
:1014B000904101612068416921F02A014161206861
:1014C000C16841F40051C160E563202084F839000F
:1014D00084F83A00002070BD10B50068114986B04C
:1014E00088421DD11048816941F480418161806941
:1014F0000E4C00F4804004904FF4007000900220E5
:1015000001900320039069462046FFF7B5F80021BB
:101510002015CDE90001029169462046FFF7ACF89D
:1015200006B010BD00380140001002400008014024
:101530002DE9F843044690F839001F4616460D463B
:10154000202850D1A5B19EB194F8380001284AD086
:10155000012084F838004FF00008C4F83C802120B6
:1015600084F83900FFF774F9A6848146E68426E002
:101570000120BDE8F883E08C401EE084A0684B4663
:10158000B0F5805F4FF000024FF0800120460097D9
:1015900003D000F005FBE8B90DE000F001FBC8B98D
:1015A00028882168C0F308004860206908B16D1CD4
:1015B00005E0AD1C03E0216815F8010B4860E08CE4
:1015C0000028D8D14B46002240212046009700F049
:1015D000E7FA08B10320CCE7202084F8390084F82A
:1015E00038800020C5E70220C3E7FEE73EB5134878
:1015F0001149012401600021C0E9021441614FF446
:1016000060220461C2614160FEF744FF18B14321CA
:101610000BA000F0F8FA0320CDE9000405200290A9
:1016200069460648FEF744FE002803D04D2104A079
:1016300000F0E9FA3EBD0000002401401C0000203B
:101640002E2E2F5372632F6164632E6300000000FF
:1016500030B51F4885B0816941F020018161816901
:1016600001F020010491816941F0040181618169E7
:1016700001F004010491816941F0080181618069F0
:10168000144D00F008000490012210212846FFF7B5
:10169000DAF810200124CDE9000400200290022095
:1016A000039069462846FEF7E7FF202000900A488D
:1016B000CDE9010469462846FEF7DEFF002201213C
:1016C0001720FFF759F91720FFF74AF905B030BD89
:1016D00000100240000801400000211010B5194818
:1016E00086B01749016047210024C0E9011441F286
:1016F0008831C0E903140921C0E90514FFF7BBFCD8
:1017000018B1432110A000F07EFA4FF480500090F1
:1017100069460C48FFF7FCFC18B149210AA000F00B
:1017200072FA049404A907480594FFF77CFC00288A
:1017300003D0502104A000F066FA06B010BD0000EE
:10174000002C01404C0000202E2E2F5372632F746A
:10175000696D2E630000000010B518488CB0164962
:101760000024C0E900144FF6FF71C0E90241046192
:1017700084610320CDE900040120CDE902040621A3
:101780000491CDE90540CDE9074169460B48FFF7D3
:1017900038FD18B16B210AA000F035FA099409A9A7
:1017A00006480A94FFF73FFC002803D0722104A0EA
:1017B00000F029FA0CB010BD000800408C00002099
:1017C0002E2E2F5372632F74696D2E63000000005C
:1017D0000D4810B50B4901604FF4E1314160002123
:1017E00081600C22C160C0E904128161C161FFF710
:1017F00042FE002805D0BDE81040422103A000F0C1
:1018000002BA10BD00380140CC0000202E2E2F530C
:1018100072632F75736172742E630000FEE7704768
:101820000907090E002806DA00F00F0000F1E02099
:1018300080F8141D704700F1E02080F80014704714
:10184000704700000021022803D0042807D00020A0
:1018500070474FF08042506A516200B27047024AAE
:101860001068116000B2704724080040704710B53E
:10187000FEF7F4FFBDE81040FFF7CFBB30B593B0E3
:1018800001210804CDE900100025029502240491ED
:10189000CDE907404FF4E01009906846FFF71AFAC7
:1018A00000B1FEE70AA90F2081E831004FF4806003
:1018B000CDE90D0502210AA8FFF706F900B1FEE700
:1018C0004FF4004011900F940FA8FFF787F800B174
:1018D000FEE7FFF7A3F94FF47A71B0FBF1F0FFF7E1
:1018E00088FB0420FFF778FB00221146501EFFF70B
:1018F00043F813B030BD00000D48016841F001010C
:10190000016041680B4A1140416001680A4A114078
:101910000160016821F480210160416821F4FE0129
:1019200041604FF41F0181600449C00308607047A3
:10193000001002400000FFF8FFFFF6FE08ED00E097
:101940000148FFF7CABC00004C0000200148FFF727
:10195000C4BC00004C000020F0B50268164B174CC8
:10196000174D4FF08047984205D0B84203D0A042AF
:1019700001D0A84203D122F070064A68324398424F
:1019800005D0B84203D0A04201D0A84203D122F42E
:101990004074CA68224322F080044A6922430260EC
:1019A0008A68C2620A688262984201D10969016349
:1019B00001214161F0BD0000002C01400004004005
:1019C0000008004010B5846842EA032224F47F44F2
:1019D0000A432243826010BD826822F070020A43EB
:1019E00042F007018160704710B5036A046A24F071
:1019F00001040462846924F0F00444EA021423F030
:101A00000A020A438461026210BD10B5036A23F022
:101A1000100303628369046A23F4704343EA0232C9
:101A200024F0A00343EA01118261016210BD0000AD
:101A30002DE9F041044600680169E26821F4405153
:101A4000114301612169A068084361690843216865
:101A5000CA6841F20C639A430243CA602068416934
:101A6000A26921F44071114341614C492068642509
:101A7000322688423CD1FFF7E7F800EBC00101EBCA
:101A8000001061688900B0FBF1F7FFF7DDF800EBAB
:101A9000C00101EB00106168B0468900B0FBF1F0B5
:101AA000B0FBF5F06FF01801484307EB800106EB3F
:101AB0000110B0FBF5F000F0F006FFF7C5F800EB01
:101AC000C00101EB001061688900B0FBF1F0B0FBD0
:101AD000F5F006EB0016FFF7B7F800EBC00101EBDD
:101AE000001061688900B0FBF1F7FFF7ADF83BE04B
:101AF000FFF79AF800EBC00101EB00106168890064
:101B0000B0FBF1F7FFF790F800EBC00101EB00101C
:101B10006168B0468900B0FBF1F0B0FBF5F06FF002
:101B20001801484307EB800106EB0110B0FBF5F00C
:101B300000F0F006FFF778F800EBC00101EB0010B1
:101B400061688900B0FBF1F0B0FBF5F006EB001620
:101B5000FFF76AF800EBC00101EB00106168890033
:101B6000B0FBF1F7FFF760F800EBC00101EB0010EC
:101B700061688900B0FBF1F0B0FBF5F06FF018017F
:101B8000484307EB800108EB0110B0FBF5F021683A
:101B900000F00F0030448860BDE8F081003801405B
:101BA0002DE9F041984617460E460446069D1DE075
:101BB000681C1BD02DB1FEF74BFEA0EB0800A8421D
:101BC00014D92068C16821F4D071C16020684169CE
:101BD00021F001014161202084F8390084F83A00A5
:101BE000002084F838000320BDE8F08120680068F8
:101BF00036EA000004D00020B842D9D00020F3E734
:101C00000120F9E7FEE7FEE70FB4054B10B503A985
:101C1000044A029800F018F810BC5DF814FB0000AC
:101C20009D1D00081800002002E008C8121F08C10E
:101C3000002AFAD170477047002001E001C1121F4D
:101C4000002AFBD1704700002DE9FF4F89B09B4669
:101C50000446002506E025280BD05A460B999047EC
:101C6000641C6D1C20780028F5D10DB02846BDE815
:101C7000F08F0027B8460122474900E0074314F8D7
:101C8000013F203B02FA03F00842F7D120782E28CA
:101C900019D114F8010F47F004072A280ED06FF06D
:101CA0002F022078A0F1300109290CD808EB880117
:101CB00002EB410100EB0108641CF2E70A98641C86
:101CC00050F8048B0A9020780028CED0642808D0E1
:101CD000692806D075281ED05A460B9990476D1C6E
:101CE00058E00A994FF00A0901C90A91002802DA5E
:101CF00040422D2102E0390504D52B218DF820101A
:101D0000012103E0F90704D02021F7E78A4608AE55
:101D10000DE00021FAE70A994FF00A0901C90A917A
:101D2000F7E74946FEF7FEF9303106F8011D0028B5
:101D3000F7D1ADEB060000F12009780701D44FF090
:101D40000108C84502DDA8EB090000E0002080463C
:101D5000002706E008A85A46C05D0B9990476D1C05
:101D60007F1C5745F6DB04E030205A460B9990471C
:101D70006D1CB8F10001A8F10108F5DC05E016F8CA
:101D8000010B5A460B9990476D1CB9F10001A9F15E
:101D90000109F4DC641C65E70928010013B54FF65E
:101DA000FF73012269460248FFF7C2FB00981CBD81
:101DB000CC000020FEF75AFDFFF760FDFFF748FC5E
:101DC000FFF706FDFFF712FCFFF788FCFFF7C4FCE6
:101DD000FEF7FCF90A48FFF78FF90A48FFF78CF97C
:101DE00009A0FFF711FF174C0420FFF72BFD6060DF
:101DF000616815A0FFF708FFC820FEF703FCF3E7B2
:101E00004C0000208C0000202D2D2D2DD5E2CAC7BE
:101E1000D2BBB8F6414443B5A5CDA8B5C0B5E7D10E
:101E2000B9B2C9BCAF2BB0B4BCFCD6D0B6CF2BB6C0
:101E3000A8CAB1C6F73120CAB5D1E92D2D2D2D2D57
:101E40000A00000000000020B5B1C7B0B1E0C2EB4D
:101E5000C6F7B6C1D6B5A3BA202025640D0A000086
:101E6000000000000000000001020304060708094A
:101E70000000000001020304981E0008000000207A
:101E80001C000000281C0008B41E00081C000020D4
:101E9000F4040000381C00080000000000000000EE
:101EA00001000000100000000000000000A24A0431
:041EB000000000002E
:04000005080000ED02
:00000001FF
