:020000040800F2
:10000000580500200101000821210008FB1D0008FF
:10001000112100083D08000891260008000000009A
:100020000000000000000000000000006D2100083A
:100030003F0800080000000043210008A12100083B
:100040001B0100081B0100081B0100081B01000820
:100050001B0100081B0100081B0100081B01000810
:100060001B0100081B0100081B0100081B01000800
:100070001B0100081B0100081B0100081B010008F0
:100080001B0100081B010008010700081B010008F4
:100090001B0100081B0100081B010008570800088D
:1000A000712200087D2200081B0100081B010008C6
:1000B0001B0100081B0100081B0100081B010008B0
:1000C0001B0100081B0100081B0100081B010008A0
:1000D0001B0100081B0100081B0100081B01000890
:1000E000410800081B0100081B010008DFF80CD0C4
:1000F00000F076FA00480047812F000858050020DC
:100100000648804706480047FEE7FEE7FEE7FEE7B1
:10011000FEE7FEE7FEE7FEE7FEE7FEE7292200082E
:10012000ED000008202A04DB203A21FA02F0002129
:10013000704721FA02F3D040C2F1200291400843F7
:100140001946704796230022114600F063B800F06C
:10015000004230F000400AD0C10D01F56071C0F3DB
:10016000160042EA0151C2084007114370470020BF
:100170000146704730B50B4601460020202201247D
:1001800009E021FA02F59D4205D303FA02F5491B65
:1001900004FA02F52844151EA2F10102F1DC30BD7B
:1001A0002DE9F05F0546002092469B4688460646AC
:1001B000814640241BE02846414647462246FFF739
:1001C000B1FF53465A46C01A914110D31146184602
:1001D000224600F017FA2D1A67EB01084F46224617
:1001E0000120002100F00EFA17EB00094E41201EFD
:1001F000A4F10104DFDC484631462A464346BDE807
:10020000F09F0029A8BF7047401C490008BF20F09C
:100210000100704710B4B0FA80FC00FA0CF050EA0C
:10022000010404BF10BC704749B1CCF1200421FA8D
:1002300004F411FA0CF118BF012121430843A3EB88
:100240000C01CB1D4FEA00614FEA102042BF002095
:1002500010BC704700EBC35010440029A4BF10BC71
:100260007047401C490008BF20F0010010BC7047D7
:100270002DE9FE4F804681EA0300C00F0C46009036
:1002800021F0004123F00045B8EB0200A94105D25E
:100290004046214690461C460B46024623F000404D
:1002A000104347D0270DC7F30A00C3F30A51029049
:1002B000401A019040286BDAC3F3130040F4801B0E
:1002C0000098924620B10023D2EB030A63EB0B0B9C
:1002D00001985946C0F14002504600F093F9064695
:1002E0000D4650465946019A00F09BF910EB080064
:1002F0006141002487EA115284EAE7731A4340D02F
:10030000009A62B3019A012A4FEA075215DC001BDA
:1003100061EB02014FF0004202EA0752CDE90042D0
:10032000001C41F5801132462B4600F09BF903B0CA
:10033000BDE8F08F40462146F9E7001B61EB020162
:10034000001C41F5801300185B412018A2F500172E
:1003500047EB030140EAD570B6196D4111E06D0815
:100360004FEA360645EAC0754FEA0752001B61EBBB
:100370000201001C41F5801149084FEA30000019C4
:10038000514132462B4603B0BDE8F04F00F05BB957
:100390000098012240000023D0EB020263EBE073DF
:1003A000009821464FEAE074B8EB000061EB0401CD
:1003B000E9E783F000435BE781F0004158E72DE96E
:1003C000FE4F81EA030404F0004421F00041009450
:1003D0004FF0000B23F0004350EA01045ED052EAD4
:1003E00003045BD0C3F30A54C1F30A552C44A4F2AE
:1003F000F3340194A0FB0254C1F3130141F48011C2
:10040000C3F3130343F4801301FB024400FB034EC8
:10041000840A970A44EA815447EA8357A4FB076891
:1004200002958D0A05FB07854FEA932C04FB0C54BB
:100430002705029D4FEA065847EA1637B5EB08052F
:100440006EEB070C870E920E47EA811742EA831281
:10045000A7FB0201B6EB0B0164EB00042B0D43EA92
:100460000C335E1844EB1C50DA465146E7FB0201A0
:10047000C5F313044FEA0B3343EA14534FEA043233
:10048000019C43EA0603A4F10C040294009CCDE90C
:1004900000B400F0E7F803B0BDE8F08F002001469B
:1004A000F9E72DE9F04D81EA030404F0004B21F057
:1004B000004514464FF0000A23F0004150EA0502BF
:1004C00020D054EA01021DD0C5F30A570246C5F3F5
:1004D0001303C1F31300C1F30A5640F4801543F42B
:1004E0008013A7EB0608101BD64608F2FD3873EB05
:1004F000050002D308F1010801E092185B41B8F150
:10050000000F03DA00200146BDE8F08D00204FF413
:100510008011064684460EE0171B73EB050705D3D2
:10052000121B63EB050306434CEA010C49084FEA32
:10053000300092185B4150EA0107EDD152EA030006
:1005400012D082EA040083EA0501084305D0101B9B
:10055000AB4106D20122002306E000224FF0004307
:1005600002E06FF0010253101AEB06004CEB085149
:1005700010EB0A0041EB0B01BDE8F04D00F063B851
:10058000C1F30A52C1F3130140F2FF3341F4801169
:100590009A4202DA00200146704740F233439A4201
:1005A000A2F2334202DC5242FFF7BCBD00F02AB88F
:1005B00030B5041E71F1000404DB4FF000444042EA
:1005C00064EB0101141E73F1000405DB1C464FF0BF
:1005D0000043524263EB0403994208BF904230BD8E
:1005E000064C074D06E0E06840F0010394E8070080
:1005F00098471034AC42F6D3FFF77CFD0831000871
:1006000028310008202A04DB203A00FA02F10020F9
:1006100070479140C2F1200320FA03F31943904040
:100620007047202A06DBCB17203A41FA02F043EA52
:10063000E07306E041FA02F3D040C2F1200291409B
:1006400008431946704710B5141E73F1000408DA08
:10065000401C41F1000192185B411A4301D120F086
:10066000010010BD2DE9F04D92469B4611B1B1FA43
:1006700081F202E0B0FA80F220329046FFF7C2FF2A
:1006800004460F4640EA0A0041EA0B0153465A4627
:10069000084313D0114653EA010019D0C8F14002B3
:1006A0005046FFF73FFD05460E4650465946424626
:1006B000FFF7A8FF084305D0012004E02046394693
:1006C000BDE8F08D0020054346EAE0762C43374331
:1006D0000A986305E40AA0EB08000022FD0A44EA38
:1006E00047540A3002D500200146E9E701051019F8
:1006F0006941DDE9084500196941BDE8F04DA2E70F
:10070000014800F060B900002400002070B50446E4
:1007100000688168C943C9071CD1816821F00101C3
:10072000816000F0C7FB05460FE000BF00F0C2FB90
:10073000401B022809D9A06A40F01000A062E06ABC
:1007400040F00100E062012070BD20688068C04375
:10075000C007EBD0002070BD01B50098411E00918C
:10076000FBD208BD3148816941F004018161304903
:100770000A6822F470420A60816941F40071816163
:10078000C16841F40071C160C16821F40071C160A9
:10079000416821F440414160416841F400414160B9
:1007A00024480168244A1140016001680160016821
:1007B00021F480710160001D016821F002010160D7
:1007C000016821F460210160016841F46021016049
:1007D000016841F480110160016821F40061016049
:1007E000144928310A6822F470020A600A6800225B
:1007F0000A6010490C310A6822F470420A600A68E3
:1008000042F460620A60016841F001010160016820
:1008100041F00801016001680907FCD4016841F05A
:100820000401016001684907FCD4704700100240D0
:100830000008014004240140FFFFF000FEE770477C
:1008400010B54FF4006000F03DFABDE810404FF4E1
:10085000805000F037BA10B5202000F033FABDE820
:100860001040802000F02EBA0B490A6822F01F02C7
:100870000A600A6802430A6007482C38016841F49C
:10088000800101600448343801688907FCD50248BA
:100890001830006880B2704734240140F0B500255C
:1008A0000E4607462C4608E03846FFF7DDFF0544B4
:1008B000C820FFF751FF641CE4B2B442F4D3B5FB87
:1008C000F6F080B2F0BD7047F8B50024009490F8BF
:1008D00024202546012A12D0012280F824204A68CB
:1008E0001F23072A0DD20668776B521E02EB820285
:1008F00093409F430B6893401F43776319E00220A6
:10090000F8BD06680D2A0AD2376BD21F02EB8202AD
:1009100093409F430B6893401F43376309E0F76A96
:100920000D3A02EB820293409F430B6893401F43B2
:10093000F7620A68072306680A2A0AD3F7680A3AA0
:1009400002EB420293409F438B6893401F43F76042
:1009500008E0376902EB420293409F438B68934063
:100960001F4337610A68102A01D0112A20D1124B87
:1009700002689A4217D193681B0219D4936843F412
:10098000000393600968102912D10C490C4A0968C8
:10099000B1FBF2F101EB8101490000E0491E009139
:1009A0000029FBD104E0816A41F020018162012429
:1009B00080F824502046F8BD002401401C0000208F
:1009C00040420F00704710B5044600684168890630
:1009D00026D50168890723D5A16AC90603D4A16A6F
:1009E00041F40071A1628168C1F34241072910D12D
:1009F000E16871B9416821F020014160A06A20F4EA
:100A00008070A062A06AC00403D4A06A40F0010014
:100A1000A0622046FFF7D6FF21686FF01200086041
:100A20002068416809062ED5016849072BD5A16ABF
:100A3000C90603D4A16A41F40051A1628168C1F3DF
:100A40000231072909D04168490515D48168C1F3ED
:100A50004241072910D1E16871B9416821F0800154
:100A60004160A06A20F48050A062A06AC00503D44F
:100A7000A06A40F00100A0622046FFF724FF216831
:100A80006FF00C0008602068416849060DD50068C9
:100A9000C0070AD0A06A40F48030A062204600F06F
:100AA00093F821686FF00100086010BD2DE9F04156
:100AB0004FF0000704003D467ED0A06A002628B90A
:100AC000E66284F82460204600F080F82046FFF7B4
:100AD0001DFEA16A01F01001014304D0A06A40F09C
:100AE0001000A06268E0A16A21F4885141F002017F
:100AF000A1626268E169E3680A4347EA43010A4385
:100B0000A1684FF48077B94208D0012906D00021AE
:100B1000D4F814C0BCF1010F02D00AE03946F7E75F
:100B2000F3B1A36A43F02003A362E36A43F0010335
:100B3000E3622368D3F804C02CF4694C4CEA010C3E
:100B4000C3F804C023689968DFF870C001EA0C019B
:100B500011439960A168B9420BD0012909D00CE07A
:100B6000DFF85CC0A3690CEB43330B4343F4006133
:100B7000DFE7218A0D05A5F580152168CB6A23F4EE
:100B800070032B43CB62216889680E4B1940914258
:100B900008D1E662A16A21F0020141F00101A162DF
:100BA000BDE8F081A06A20F0020040F01000A062D1
:100BB000E06A40F00100E0620120F1E7FDF7E1FFAB
:100BC00000E0FFFFFE0E1FFF7047000000B5006849
:100BD0000F4985B0884218D10E48816941F40071EF
:100BE00081618069694600F40070049008200090DB
:100BF00003200190084800F071F800220221122021
:100C000000F0ECF9122000F0DDF905B000BD0000A5
:100C100000240140001002400008014070B5044665
:100C200000F048F90546601C02D0044800780444EE
:100C300000F040F9401BA042FAD370BD1000002024
:100C40002DE9F0414FF400651B4F1C4E1C4CA8428F
:100C50000DD10A20FFF7E2FF2946384600F01CF9C3
:100C600010B9E068643811E03560BDE8F0814FF4F8
:100C70008055A8420CD10A20FFF7D0FF29463846FC
:100C800000F00AF90028EFD1E0686430E060EBE79B
:100C90002028EAD10A20FFF7C1FF2021384600F0C2
:100CA000FBF818B9207820B1002020702020306097
:100CB000DBE70120F9E700000008014014040140CF
:100CC00000000020044910B50A68024202D0086002
:100CD000FFF7B6FF10BD0000140401402DE9F84FE6
:100CE000DFF890A100220AF1040B144601274FF00F
:100CF0000F090BF1040E00BF0B6807FA04F52B4037
:100D0000AB4274D1DFF870C14E68A6EB0C086645A3
:100D10002BD00DDC032E34D005DC36B3012E19D0D8
:100D2000022E2FD11BE0112E16D0122E2AD119E03F
:100D3000B8F5881F19D006DCB8F5803F15D0B8F596
:100D4000801F1FD111E0B8F5001F0ED0B8F5041FA9
:100D500018D10AE0CA6815E0CA68121D12E0CA6814
:100D600008320FE0CA680C320CE08A682AB1012A06
:100D70004FF0080203D0456104E0042202E005615F
:100D800000E00022FF2B01D8064601E000F1040636
:100D90004FEA840501D9A5F12005D6F800C009FA6B
:100DA00005F82CEA080C02FA05F54CEA050CC6F821
:100DB00000C04D68ED0057D5304DAE6946F00106D4
:100DC000AE61AD6924F0030605F0010500952C4DD8
:100DD00006EB050CDCF80850A6074FEA167809FA6E
:100DE00008F6B543274EB04202D1002610E03BE0A2
:100DF000254EB04201D101260AE0244EB04201D175
:100E0000022605E0224EB04201D1032600E004266E
:100E100006FA08F62E43CCF808604D68DAF8006050
:100E2000ED03554601D51E4300E09E432E604D68FC
:100E3000DBF80060AD035D4601D51E4300E09E4334
:100E40002E604D68DEF80060ED02754601D51E4348
:100E500000E09E432E604D68AD020E4D2E6801D518
:100E60001E4300E09E432E60641C102CFFF444AF30
:100E7000BDE8F88F0004014000001110001002408E
:100E80000000014000080140000C0140001001403A
:100E9000001401400C0401408068084000D001208B
:100EA0007047C2684A40C26070470AB1016170472A
:100EB0000904FBE70148806870470000100000202B
:100EC0000248816802781144816070471000002058
:100ED000074810B5016841F010010160032000F0DF
:100EE0009DF8002000F006F800F024F8002010BD66
:100EF0000020024070B50D4D04464FF47A712878F9
:100F0000B1FBF0F00A490968B1FBF0F000F0A3FB77
:100F100048B9102C07D200222146501E00F05EF87E
:100F200000206C6070BD012070BD0000100000202A
:100F30001C000020214808B5816941F00101816150
:100F4000816901F001010091C16941F08051C161E5
:100F5000C06900F080500090032000F05FF800228C
:100F600011466FF00B0000F039F8002211466FF0C7
:100F70000A0000F033F8002211466FF0090000F07B
:100F80002DF800221146501F00F028F800221146CB
:100F9000101F00F023F800221146901E00F01EF8EA
:100FA00000221146501E00F019F80548416821F052
:100FB000E06141F00071416008BD00000010024096
:100FC0000000014000F01F02012191404009800013
:100FD00000F1E020C0F8001170470000F0B40E4BA3
:100FE0001B680C46C3F30223C3F10705042D00D987
:100FF0000425191D072901D2002300E0DB1E01266C
:1010000006FA05F1491E214099409E40761E164081
:101010003143F0BC01F085B80CED00E0064900F06A
:10102000070208684FF6FF03184040EA0220034A0F
:1010300010430860704700000CED00E00000FA0566
:101040002DE9F84305460078354CC00754D0E069D7
:101050000026C00008D4E06940F08050E061E069FB
:10106000012600F0805000902E480168C90512D476
:101070000168804641F480710160FFF71BFF07465D
:1010800005E000BFFFF716FFC01B642823D8D8F87F
:101090000000C005F6D5206A10F4407021D0A98860
:1010A00001F4407181421CD0206A1F49012220F4C2
:1010B00040700A6000220A602062C00711D0FFF76A
:1010C000F9FE074641F2883808E000BFFFF7F2FE5C
:1010D000C11B414502D90320BDE8F883206A80077F
:1010E000F4D5206A696820F44070084320621EB17C
:1010F000E06920F08050E0612878800705D56068BD
:10110000A96820F44040084360602878C00605D5EF
:101110006068E96820F48000084360600020DBE735
:101120000010024000700040400442422DE9F047A8
:10113000DFF83C8105460E46D8F8000000F00700B5
:10114000B0420CD2D8F8001021F007013143C8F8A2
:101150000010D8F8000000F00700B04263D12878F2
:10116000444C800705D56068A96820F0F00008436A
:1011700060602878C00745D06868012816D02168CB
:10118000022816D0890700294DDA616821F0030191
:1011900001436160FFF78EFE6968074641F28830BF
:1011A00001290FD00229814619D027E0216889033F
:1011B000E9E78901E7E700BFFFF77CFEC11B49456E
:1011C00001D918E081466068C0F381000128F3D19D
:1011D00018E000BFFFF76EFEC11B49450BD86068E1
:1011E000C0F381000228F5D10CE000BFFFF762FEDA
:1011F000C11B494502D90320BDE8F087606810F0A3
:101200000C0FF3D1D8F80010404601F00701B142AD
:101210000BD9016821F0070131430160006800F03B
:101220000700B04201D00120E6E72878400705D545
:101230006068E96820F4E06008436060287800078F
:1012400006D56068296920F4605040EAC1006060FA
:1012500000F03CF86168084AC1F30311515CC840D2
:10126000064908600020FFF745FE0020C4E70000A3
:101270000020024000100240F03000081C00002056
:1012800001480068704700001C0000200448054920
:1012900000684968044AC1F30221515CC8407047A4
:1012A0001C000020001002400031000804480549DD
:1012B00000684968044AC1F3C221515CC8407047C4
:1012C0001C000020001002400031000812A185B06F
:1012D0000FC98DE80F0014A0144A006804905168EB
:1012E000134801F00C03042B10D0082B0ED1C1F3CE
:1012F0008343C9031DF803000AD5516804AAC1F34A
:101300004041515C0A4A5043B0FBF1F005B07047D0
:1013100008494843FAE700000203040506070809E4
:101320000A0B0C0D0E0F10100102000000100240FD
:1013300000127A0000093D002DE9F84F04460078BC
:10134000B94DC00748D06868C0F38100012807D0B4
:101350006868C0F38100022809D16868C00306D517
:101360002868800338D5606800286FD034E0606852
:10137000B0F5803F0BD010B1B0F5A02F11D0286888
:1013800020F480302860286820F4802002E028685B
:1013900040F480302860606888B1FFF78BFD064616
:1013A00009E0286840F480202860F0E7FFF782FD1C
:1013B000801B642875D828688003F7D50CE0FFF7F8
:1013C00079FD064605E000BFFFF774FD801B642829
:1013D000F0D828688003F7D42078944E80074FF027
:1013E00001094FF000083BD5686810F00C0F07D0DA
:1013F0006868C0F38100022809D16868C00306D478
:101400002868800714D5206901281FD110E02069C1
:10141000B0B1C6F80090FFF74DFD074605E000BFEC
:10142000FFF748FDC01B0228C4D828688007F7D5FD
:101430002868616920F0F80040EAC10028600FE0E8
:10144000C6F80080FFF736FD074606E0E9E000BF7A
:10145000FFF730FDC01B022823D828688007F7D487
:10146000207800072CD57248A169D9B1C0F8009046
:10147000FFF720FD074604E0FFF71CFDC01B022814
:101480000FD8686A8007F7D56A484FF4FA510068A8
:10149000B0FBF1F0009000BF0098411E0091FAD21D
:1014A0000EE080E0C0F80080FFF704FD074604E08E
:1014B000FFF700FDC01B022875D8686A8007F7D4C3
:1014C0002078400760D5E8690027C00008D4E869A3
:1014D00040F08050E861E869012700F080500090FA
:1014E00055480168C90513D40168834641F48071E9
:1014F0000160FFF7DFFC824606E000BFFFF7DAFC81
:10150000A0EB0A0064284ED8DBF80000C005F5D532
:10151000E06801280AD008B1052813D0286A20F015
:1015200001002862286A20F0040002E0286A40F0E6
:1015300001002862E06841F2883B98B1FFF7BAFCED
:1015400082460BE0286A40F004002862EEE700BF04
:10155000FFF7B0FCA0EB0A0159455AD8286A80076A
:10156000F6D50CE0FFF7A6FC824605E0FFF7A2FCEB
:10157000A0EB0A0159454CD8286A8007F6D41FB160
:10158000E86920F08050E861E06988B36968C1F3D8
:101590008101022945D00228C6F8608004D0FFF7F7
:1015A00089FC044638E034E0FFF784FC074604E099
:1015B000FFF780FCC01B02282BD828688001F7D4D5
:1015C000206AB0F5803F05D16868A16820F400303A
:1015D00008436860D4E908010843696821F474117C
:1015E00008436860C6F86090FFF764FC044606E0B4
:1015F00015E000BFFFF75EFC001B022809D8286831
:101600008001F7D50BE000BFFFF754FC001B022858
:1016100002D90320BDE8F88F28688001F4D40020A7
:10162000F8E70120F6E70000001002400000424207
:10163000800442421C000020007000404FF0E02176
:101640000428086903D020F004000861704740F0C6
:101650000400FAE7704710B5401EB0F1807F01D357
:10166000012010BD4FF0E02460610F21601700F0F1
:1016700058FD0020A06107202061002010BD10B59A
:10168000FFF7E8FF10BD7047704730B590F83C2079
:10169000012A20D0012280F83C20022380F83D302E
:1016A00003685C6824F070045C6003685C680D6823
:1016B0002C435C6003689C6824F080049C60036891
:1016C0009C6849680C439C6080F83D20002180F8AC
:1016D0003C10084630BD022030BD10B5040003D0D8
:1016E00094F83D0010B107E0012010BD002084F8FF
:1016F0003C00204600F00CF8022084F83D00211D3B
:10170000206800F0C1FD012084F83D00002010BDDC
:1017100008B5154A01681548914219D1816941F40B
:10172000006181618069002200F400600090012165
:101730001820FFF753FC1820FFF744FC002201217A
:101740001920FFF74BFCBDE808401920FFF73ABC11
:10175000074A914207D1C16941F00201C161C069E4
:1017600000F00200009008BD002C01400010024073
:10177000000400400168CA6842F00102CA600068C3
:10178000016841F0010101600020704770B5044616
:1017900090F83C00012817D0012584F83C50022025
:1017A00084F83D002068826822F0770222F47F42AC
:1017B00082600868502837D00DDC202859D005DC1D
:1017C00088B3102841D151E0022070BD302853D099
:1017D00040283AD13FE060282ED070280BD0B0F5D9
:1017E000805F03D0B0F5005F2FD110E020688168E2
:1017F00021F0070115E0CB68D1E90121206800F054
:1018000084FD2168886840F0770088601DE0CB681F
:10181000D1E90121206800F078FD2068816841F459
:101820008041816011E01EE0CA684968206800F0CC
:1018300021FE5021206806E0CA684968206800F04F
:101840002AFE6021206800F06AFD84F83D500020E7
:1018500084F83C0070BDCA684968206800F00AFE40
:1018600040212068EFE700212068ECE71021206884
:10187000E9E720212068E6E730212068E3E72DE949
:10188000F0410D46040003D094F83D0018B108E083
:101890000120BDE8F081002084F83C00204600F0E3
:1018A00039F8022084F83D002068816821F00701A2
:1018B0008160211D206800F0E7FC22689068916932
:1018C000166A2B68AF69034340F20330814341EA53
:1018D0000721A868EF6908434FF6FC418843E9688F
:1018E00040EA0720014328692F6A000140EA0730D7
:1018F000084369686D6926F0AA0646EA051529437A
:1019000093602268906120680162012084F83D00A4
:101910000020BEE700B500680B4985B0884211D1B0
:101920000A48C16941F00401C161C069694600F01B
:1019300004000490C0200090002001900290044810
:10194000FFF7CCF905B000BD0008004000100240D0
:10195000000C014010B50446006891B1042904D080
:101960000122002100F0C6FC206801225FF0040182
:1019700000F0C0FC2068016841F001010160002016
:1019800010BD01220021F3E7704770B504460068DE
:1019900001694FF00005C943890715D4C168C943DF
:1019A000890711D4E91E0161012020772068806930
:1019B0008007204602D0FFF7E7FF04E000F0ACF814
:1019C000204600F02EF9257720680169C9434907B0
:1019D00017D4C168C943490713D46FF004010161EA
:1019E000022020772068806910F4407F204602D0D2
:1019F000FFF7CAFF04E000F08FF8204600F011F96D
:101A0000257720680169C943090716D4C168C9430D
:101A1000090712D46FF008010161042020772068C3
:101A2000C0698007204602D0FFF7AEFF04E000F057
:101A300073F8204600F0F5F8257720680169C9435E
:101A4000C90617D4C168C943C90613D46FF0100181
:101A50000161082020772068C06910F4407F20468B
:101A600002D0FFF791FF04E000F056F8204600F0A6
:101A7000D8F8257720680169C943C90708D1C1682A
:101A8000C943C90704D1891E0161204600F0E2F86C
:101A900020680169C943090609D4C168C943090618
:101AA00005D46FF0800101612046FFF7ECFD20684E
:101AB0000169C943490609D4C168C943490605D427
:101AC0006FF040010161204600F0DCF820680169F8
:101AD000C94389060BD4C168C943890607D46FF08E
:101AE000200101612046BDE87040FFF7CDBD70BD0B
:101AF0001FB500680649884208D102200090019075
:101B00000120039069460348FFF7E8F81FBD000075
:101B100000040040000C0140704770B5044690F886
:101B20003C000D4601280DD0012684F83C600220BF
:101B300084F83D0042B1042A18D0082A2AD00C2A81
:101B40004DD139E0022070BD206800F0F1FB206823
:101B5000816941F0080181612068816921F00401F7
:101B60008161206881692A69114311E0206800F0D1
:101B700007FC2068816941F4006181612068816906
:101B800021F480618161206881692A6941EA02212A
:101B9000816124E0206800F01FFC2068C16941F0E9
:101BA0000801C1612068C16921F00401C161206898
:101BB000C1692A69114311E0206800F039FC2068EE
:101BC000C16941F40061C1612068C16921F480618B
:101BD000C1612068C1692A6941EA0221C16184F8B2
:101BE0003D60002084F83C0070BD10B5040003D0B7
:101BF00094F83D0010B107E0012010BD002084F8EA
:101C00003C00204600F00CF8022084F83D00211D25
:101C1000206800F039FB012084F83D00002010BD51
:101C20007047704710B504460068012200F062FB5F
:101C300007492068884203D1416C41F40041416466
:101C40002068016841F001010160002010BD000022
:101C5000002C0140084988420CD108484188491CA1
:101C600041804188142905D1002141801021044878
:101C7000FFF717B970470000540000200000002053
:101C800000080140704770B5040004D094F8390092
:101C9000002510B106E0012070BD84F838502046C0
:101CA00000F022F8242084F839002068C16821F46B
:101CB0000051C160204600F001FC2068016921F458
:101CC000904101612068416921F02A014161206849
:101CD000C16841F40051C160E563202084F83900F7
:101CE00084F83A00002070BD10B50068114986B034
:101CF00088421DD11048816941F480418161806929
:101D00000E4C00F4804004904FF4007000900220CC
:101D100001900320039069462046FEF7DFFF002173
:101D20002015CDE90001029169462046FEF7D6FF55
:101D300006B010BD0038014000100240000801400C
:101D40002DE9F843044690F839001F4616460D4623
:101D5000202850D1A5B19EB194F8380001284AD06E
:101D6000012084F838004FF00008C4F83C8021209E
:101D700084F83900FFF79EF8A6848146E68426E0C1
:101D80000120BDE8F883E08C401EE084A0684B464B
:101D9000B0F5805F4FF000024FF0800120460097C1
:101DA00003D000F043FCE8B90DE000F03FFCC8B9F7
:101DB00028882168C0F308004860206908B16D1CBC
:101DC00005E0AD1C03E0216815F8010B4860E08CCC
:101DD0000028D8D14B46002240212046009700F031
:101DE00025FC08B10320CCE7202084F8390084F8D2
:101DF00038800020C5E70220C3E7FEE73EB5134860
:101E00001149012401600021C0E9021441614FF42D
:101E100060220461C2614160FEF748FE18B14321AF
:101E20000BA000F036FC0320CDE900040520029051
:101E300069460648FEF748FD002803D04D2104A05E
:101E400000F027FC3EBD00000024014024000020DB
:101E50002E2E2F5372632F6164632E6300000000E7
:101E60002DE9F0432C4885B0816941F02001816162
:101E7000816901F020010491816941F004018161CF
:101E8000816901F004010491816941F008018161D7
:101E90008069DFF8888000F008000490012210219A
:101EA0004046FFF702F8DFF878904FF440570022E1
:101EB00039464846FEF7F9FF102001240025022686
:101EC0008DE8710069464046FEF708FF4FF4C550A3
:101ED00000901448CDE9010469464046FEF7FEFE35
:101EE00001AA009782E8700069464846FEF7F6FEB0
:101EF000002201211720FFF771F81720FFF762F881
:101F0000002201212820FFF769F82820FFF75AF85E
:101F100005B0BDE8F0830000001002400008014059
:101F2000000C01400000211010B5194886B0174977
:101F3000016047210024C0E9011441F28831C0E961
:101F400003140921C0E90514FFF7C7FB18B14421A8
:101F500010A000F09EFB4FF48050009069460C48A2
:101F6000FFF714FC18B14A210AA000F092FB049478
:101F700004A907480594FFF788FB002803D05121E6
:101F800004A000F086FB06B010BD0000002C01404C
:101F9000540000202E2E2F5372632F74696D2E6310
:101FA0000000000010B524488EB0224901600121D4
:101FB0000024C0E9011442F21071C0E903148461E5
:101FC000FFF78BFB18B164211CA000F062FB4FF4FB
:101FD0008050079007A91848FFF7D8FB18B16A216D
:101FE00016A000F056FB1448FFF7FFFD18B16F2153
:101FF00012A000F04EFB0B940BA90F480C94FFF7B6
:1020000044FB18B176210DA000F043FB6020CDE920
:10201000000402940C22694607480494FFF77DFDF2
:1020200018B17F2105A000F034FB0348FFF760FDE5
:102030000EB010BD00040040940000202E2E2F533F
:1020400072632F74696D2E630000000010B518488C
:102050008CB016490024C0E900144FF6FF71C0E9A6
:102060000241046184610320CDE900040120CDE92F
:10207000020406210491CDE90540CDE907416946F6
:102080000B48FFF7FCFB18B19C210AA000F001FBF4
:10209000099409A906480A94FFF7F7FA002803D023
:1020A000A32104A000F0F5FA0CB010BD0008004018
:1020B000D40000202E2E2F5372632F74696D2E636F
:1020C000000000000D4810B50B4901604FF4E131EC
:1020D0004160002181600C22C160C0E9041281616D
:1020E000C161FFF7D0FD002805D0BDE810404221B6
:1020F00003A000F0CEBA10BD00380140140100204A
:102100002E2E2F5372632F75736172742E6300002D
:10211000FEE700000C210148FFF784BD9400002079
:1021200070470907090E002806DA00F00F0000F1D9
:10213000E02080F8141D704700F1E02080F80014C2
:10214000704770470021022803D0042807D00020E0
:1021500070474FF08042506A516200B27047024AA5
:102160001068116000B270472408004070470000FA
:1021700000B5002201230849002804DAC1F8B03173
:10218000C1F8B42103E0C1F8B021C1F8B43100F0C6
:10219000ABFF0249086000BD0080214240040040BE
:1021A00010B5FEF78DFEBDE81040FFF768BA30B5F8
:1021B00093B001210804CDE9001000250295022406
:1021C0000491CDE907404FF4E01009906846FFF70D
:1021D000B3F800B1FEE70AA90F2081E831004FF4FF
:1021E0008060CDE90D0502210AA8FEF79FFF00B12E
:1021F000FEE74FF4004011900F940FA8FEF720FF68
:1022000000B1FEE7FFF73CF84FF47A71B0FBF1F054
:10221000FFF721FA0420FFF711FA00221146501EA1
:10222000FEF7DCFE13B030BD0D48016841F001013E
:10223000016041680B4A1140416001680A4A11403F
:102240000160016821F480210160416821F4FE01F0
:1022500041604FF41F0181600449C003086070476A
:10226000001002400000FFF8FFFFF6FE08ED00E05E
:102270000148FFF78ABB0000540000200148FFF727
:1022800084BB000054000020F0B50268164B174CC8
:10229000174D4FF08047984205D0B84203D0A04276
:1022A00001D0A84203D122F070064A683243984216
:1022B00005D0B84203D0A04201D0A84203D122F4F5
:1022C0004074CA68224322F080044A6922430260B3
:1022D0008A68C2620A688262984201D10969016310
:1022E00001214161F0BD0000002C014000040040CC
:1022F0000008004010B50123046A8B409C4304622F
:10230000036A8A401343036210BD10B5846842EA31
:10231000032224F47F440A432243826010BD826872
:1023200022F070020A4342F007018160704700000A
:1023300030B5026A22F001020262026A43688469CF
:1023400024F073050C682C4322F002058A682A43A6
:102350000A4DA8420BD122F00805CA6823F4407345
:102360002A434D6922F004021D438B692B434360CD
:10237000846149684163026230BD0000002C014065
:1023800030B5026A22F010020262026A4368846970
:102390000D6824F4E64444EA05248D6822F0200206
:1023A00042EA05120B4DA8420ED1CD6822F0800200
:1023B00042EA05124D6923F4406343EA85038D69BF
:1023C00022F0400243EA85034360846149688163E7
:1023D000026230BD002C014030B5026A22F48072E6
:1023E0000262036A4268C46923F4007324F073052F
:1023F0000C682C438D6843EA05230C4DA8420ED18E
:10240000CD6823F4006343EA05234D6922F440526A
:1024100042EA05128D6923F4806342EA05124260A4
:10242000C4614968C163036230BD0000002C0140F3
:1024300030B5026A22F480520262046A4268C369BB
:102440000D6823F4E64343EA05238D6824F4005421
:1024500044EA0534064DA84204D14D6922F4804275
:1024600042EA85124260C36149680164046230BD7A
:10247000002C014010B5036A046A24F001040462D0
:10248000846924F0F00444EA021423F00A020A43A7
:102490008461026210BD10B5036A23F01003036269
:1024A0008369046A23F4704343EA023224F0A003F0
:1024B00043EA01118261016210BD00002DE9F04183
:1024C000044600680169E26821F44051114301614A
:1024D0002169A0680843616908432168CA6841F21C
:1024E0000C639A430243CA6020684169A26921F4DF
:1024F0004071114341614C4920686425322688426D
:102500003CD1FEF7D3FE00EBC00101EB0010616887
:102510008900B0FBF1F7FEF7C9FE00EBC00101EB4B
:1025200000106168B0468900B0FBF1F0B0FBF5F037
:102530006FF01801484307EB800106EB0110B0FB78
:10254000F5F000F0F006FEF7B1FE00EBC00101EB84
:10255000001061688900B0FBF1F0B0FBF5F006EB0C
:102560000016FEF7A3FE00EBC00101EB001061684E
:102570008900B0FBF1F7FEF799FE3BE0FEF786FE1F
:1025800000EBC00101EB001061688900B0FBF1F7BE
:10259000FEF77CFE00EBC00101EB00106168B04665
:1025A0008900B0FBF1F0B0FBF5F06FF01801484383
:1025B00007EB800106EB0110B0FBF5F000F0F00630
:1025C000FEF764FE00EBC00101EB001061688900BA
:1025D000B0FBF1F0B0FBF5F006EB0016FEF756FE8F
:1025E00000EBC00101EB001061688900B0FBF1F75E
:1025F000FEF74CFE00EBC00101EB001061688900A2
:10260000B0FBF1F0B0FBF5F06FF01801484307EBB9
:10261000800108EB0110B0FBF5F0216800F00F001D
:1026200030448860BDE8F081003801402DE9F04178
:10263000984617460E460446069D1DE0681C1BD0B2
:102640002DB1FEF737FCA0EB0800A84214D9206892
:10265000C16821F4D071C1602068416921F0010195
:102660004161202084F8390084F83A00002084F881
:1026700038000320BDE8F0812068006836EA0000D9
:1026800004D00020B842D9D00020F3E70120F9E7B8
:10269000FEE7FEE70FB4054B10B503A9044A029804
:1026A00000F0CAF810BC5DF814FB0000692F0008A8
:1026B0002000002002E008C8121F08C1002AFAD139
:1026C00070477047002001E001C1121F002AFBD1B2
:1026D000704700002DE9FF5FDDE90220010DDDF804
:1026E00038B0024318D044F61050A1F2FF314143F4
:1026F0000D140F98012820D0A5EB0B00401C5FEAB9
:10270000000A4FF00004474EDFF81C91A0465046E7
:1027100016D5CAF1000728E00F98012443A201282A
:1027200008D0002100980F9BC0E90021C0E90243B6
:10273000BDE8FF9F6FEA0B01F4E7CBF10000DEE795
:10274000074612E0F80707D022463346404649467E
:10275000FDF735FE80468946224633461046194627
:10276000FDF72DFE04460E467F10002FEAD1DDE96D
:102770000201BAF1000F42464B4602DAFDF71FFE96
:1027800001E0FDF78EFE04460E460022284BFDF7C1
:102790000FFF03D84FF0FF30014607E00022254B22
:1027A00020463146FDF764FDFDF7EAFE102409E0FE
:1027B000002C0ADB0A220023FDF7F2FC019B3032D9
:1027C0001A55641E50EA0102F2D1641C019AC4F148
:1027D000110314440F9A012A03D0012208430DD19A
:1027E0000AE0084304D000204FF0110B0F9080E75F
:1027F000A3EB0B056D1E0DE05B4504DD4FF0000201
:1028000005F1010504E003DA4FF00002A5F101052E
:10281000002AECD000980F99C0E90231C0E90045C8
:1028200086E70000000024400000F03F3000000078
:102830000000F0430000E03F2DE9FF4F95B09B46BC
:102840008946064600250FE2252877D10024274631
:10285000F84A0121059400E0044316F8013F203BAB
:1028600001FA03F01042F7D130782A2811D06FF026
:102870002F033078A0F13002092A16D8059A44F0C7
:10288000020402EB820203EB42021044761C059024
:10289000EFE759F8042B0592002A03DA504244F47A
:1028A0000054059044F00204761C30782E2816D18E
:1028B00016F8010F44F004042A280DD06FF02F02FF
:1028C0003078A0F13003092B09D807EB870302EB1E
:1028D0004303C718761CF3E759F8047B761C30785D
:1028E0006C280FD006DC4C2817D068280DD06A2839
:1028F00014D104E0742810D07A280FD10DE044F4EC
:1029000000140AE044F4801401E044F440147278A6
:10291000824202D104F58014761C761C3078662839
:102920000BD013DC582877D009DC002875D0452857
:10293000F6D04628F4D047281AD19DE118E0632844
:1029400035D0642879D0652812D195E1702873D0EC
:1029500008DC6728F1D069286FD06E280DD06F2869
:1029600006D1B5E073282CD0752875D0782874D09E
:102970005A46179990476D1C75E1C4F3025002281E
:1029800009D003280DD0D9F8001004280DD00D600F
:1029900009F1040967E1D9F80010EA17C1E900520A
:1029A000F6E7D9F800100D80F2E70D70F0E719F89E
:1029B000041B8DF8001000208DF80100EA4601206C
:1029C00003E059F804AB4FF0FF3061074FF000010E
:1029D00002D40DE008F101018846B9420FDA8045C2
:1029E000F8DB1AF808100029F4D108E008F1010119
:1029F00088468142FADB1AF808100029F6D10598BA
:102A00005B46A0EB080721463846179A00F094FA77
:102A1000284400EB080507E04DE029E10DE01AF835
:102A2000010B5A4617999047B8F10108F7D25B4657
:102A300021463846179A13E142E00A220092C4F375
:102A400002524FF0000A022A08D059F804CB032A98
:102A50004FEAEC710AD00DE029E02AE009F1070104
:102A600021F00702F2E802C1914609E00FFA8CFC5E
:102A70004FEAEC71042A03D14FFA8CFC4FEAEC7157
:102A8000002907DA0A460021DCF1000C61EB0201A3
:102A90002D2202E0220504D52B228DF804200122EC
:102AA00003E0E20701D02022F7E7904659E00A212F
:102AB00002E010220DE010214FF0000A00910BE01F
:102AC00010224FF0000A44F004040827009203E0AB
:102AD00008224FF0000A0092C4F30252022A05D0E5
:102AE00059F804CB0021032A08D009E009F10701B5
:102AF00021F00702F2E802C1914605E01FFA8CFCC2
:102B0000042A01D10CF0FF0C4FF00008220728D551
:102B1000702806D0009B83F0100353EA0A0305D007
:102B20000EE040228DF80420012208E05CEA010258
:102B300006D030228DF804208DF805000222904640
:102B4000009B83F0080353EA0A030AD15CEA0102FE
:102B500001D1620705D530228DF804204FF001081D
:102B60007F1E582804D034A003900EA802900DE0D8
:102B700036A0F9E753466046009AFDF711FB8446FC
:102B80000398825C0298401E029002705CEA010089
:102B9000F0D1029806A9081A00F1200A600702D5B0
:102BA00024F4803400E00127574502DDA7EB0A003A
:102BB00000E0002000EB0A01009005984144401A13
:102BC0000590E00306D45B462146179A059800F06D
:102BD000B3F90544002706E001A85A46C05D1799DD
:102BE00090476D1C7F1C4745F6DBE0030CD55B4628
:102BF0002146179A059800F09FF9054404E030201B
:102C00005A46179990476D1C0099481E009000295C
:102C1000F5DC08E0029802995A460078491C0291B6
:102C2000179990476D1CBAF10001AAF1010AF1DC75
:102C300065E1000009280100303132333435363780
:102C400038396162636465660000000030313233F8
:102C50003435363738394142434445460000000098
:102C600000F058F90544761C307800287FF4ECAD6C
:102C700019B02846BDE8F08F620700D4062709F195
:102C8000070222F0070CFCE80223E14603F00048AB
:102C90005FEA080C02D00FF2702C0DE05FEA045CD2
:102CA00002D50FF2682C07E05FEAC47C02D00FF275
:102CB000602C01E0AFF2700C4FF0FF3823F00043BE
:102CC000CDF850C065280CD006DC452809D0462830
:102CD0001DD047283DD13DE0662818D067287ED119
:102CE00038E00021112F01DB112000E0781CCDE934
:102CF000000106A90EA8FFF7EDFCDDE90F010E9A11
:102D000003910021009207F1010A04914DE04FF078
:102D100000400097CDE9011006A90EA8FFF7DAFCE4
:102D2000DDE90F0203920E9B11990022DDF80CA041
:102D30000093049211B9791C00EB010AB7EB0A0069
:102D400004D4C0F1FF3007F1010A0490AAEB070098
:102D5000019044E0012F00DA01270021112F01DD4D
:102D6000112000E03846CDE9000106A90EA8FFF7C2
:102D7000B1FCDDE90F010E9A03910021049100924C
:102D8000BA4621070CD40399514500DA8A46BAF1B4
:102D9000010F05DD009AAAF10101515C302908D02C
:102DA000B84202DA10F1040F06DA0121CDE9011070
:102DB00015E0AAF10101E9E7002805DC04990144C6
:102DC0000491AAEB000102E0411C514500DD8A4656
:102DD0000499401A401C01904FF0004002902007D7
:102DE00004D40198504501DBCDF8048000208DF813
:102DF0004F0002980DF14F07B0F1004F25D02B2066
:102E00000E9002984FF0020800280CDA404202901F
:102E10002D200E9007E00A210298FDF7ABF9303122
:102E2000029007F8011DB8F10001A8F10108F2DCD9
:102E300002980028EFD1791E0E980870307800F0C3
:102E4000200040F0450007F8020D12A8C01B00F159
:102E500007081498007800B1012000EB0A010198DE
:102E600001EBE07105984144401A401E0590E003D3
:102E700006D45B462146179A059800F05DF8054494
:102E80001498007818B15A46179990476D1CE003C2
:102E900024D55B462146179A059800F04DF8054465
:102EA0001CE00498002807DBDDE90301884203DD0C
:102EB0000098405C179901E0179930205A469047D6
:102EC000049805F10105401C04900198401E0190F2
:102ED00004D12E205A46179990476D1CBAF1000173
:102EE000AAF1010ADDDC05E017F8010B5A46179933
:102EF00090476D1CB8F10001A8F10108F4DC5B46B5
:102F00002146179A0598ABE62D0000002B00000023
:102F1000200000002DE9F041044600251E4617461A
:102F2000880404D405E039462020B0476D1C641E97
:102F3000F9D52846BDE8F0812DE9F0410446002589
:102F40001E469046C80301D5302700E0202788049C
:102F500004D505E041463846B0476D1C641EF9D5DE
:102F60002846BDE8F081000013B54FF6FF7301223B
:102F700069460248FEF7E4FE00981CBD14010020DB
:102F8000FDF7A6FFFFF713F9FEF76AFFFFF79AF8C0
:102F9000FEF734FFFEF7C8FFFFF758F8FFF702F817
:102FA000FDF7E0FBFFF7B6F82B48FEF7E3FB2B48F5
:102FB000FEF7E0FB2A48FEF7DDFB18212748FEF765
:102FC000C9FC28A0FFF766FB354C364D0420FFF7FF
:102FD000B9F8A860A96834A0FFF75CFB0F210320B3
:102FE000FDF75CFCFDF7AEF86860C820FDF716FE43
:102FF0006868FDF7ACF802460B4631A0FFF74AFBC4
:10300000E96833A0FFF746FB287801281CD100208F
:10301000C4F8B401C4F8B00128706420FDF7FEFDC7
:10302000E8684042E8604FF47A70FFF7A1F8D4F8FE
:10303000B40168B15FF00000C4F8B401D4F8B00185
:1030400040B10020C4F8B001E868FFF791F8BDE78F
:103050000120F1E70120F5E754000020D400002012
:10306000940000202D2D2D2DD5E2CAC7D2BBB8F675
:10307000414443B5A5CDA8B5C0B5E7D1B9B2C9BCE7
:10308000AF2BB0B4BCFCD6D0B6CF2BB6A8CAB1C655
:10309000F73120CAB5D1E92D2D2D2D2D0A000000C4
:1030A0000080214200000020B5B1C7B0B1E0C2EB02
:1030B000C6F7B6C1D6B5A3BA202025640D0A000014
:1030C000D4ADCABCD6B5203D202566200D0A00002F
:1030D00009090950574DB5B1C7B0D6B5CEAAA3BAA4
:1030E00020202025640D0A00002800DA40427047A5
:1030F00000000000000000000102030406070809A8
:103100000000000001020304283100080000002034
:1031100024000000B42600084C31000824000020E0
:1031200034050000C4260008000000000000000074
:10313000000000000000000001000000100000007E
:0C3140000000000000A24A040000000093
:04000005080000ED02
:00000001FF
