:020000040800F2
:1000000008100020B1170008B5160008B716000840
:10001000B9160008BB160008BD1600080000000055
:10002000000000000000000000000000D5170008DC
:10003000BF16000800000000D9170008C11600080C
:10004000DD170008E1170008E5170008E9170008A8
:10005000ED170008F1170008CD160008F517000885
:10006000F9170008FD170008011800080518000816
:10007000091800080D1800081118000815180008C4
:10008000191800081D180008211800082518000874
:10009000291800082D180008311800083518000824
:1000A000391800083D1800084118000845180008D4
:1000B000491800084D180008511800085518000884
:1000C000591800085D180008611800086518000834
:1000D000691800086D1800087118000875180008E4
:1000E000D7160008791800087D1800088118000844
:1000F00085180008891800088D1800089118000854
:1001000095180008991800089D180008A118000803
:10011000A5180008A9180008AD180008B1180008B3
:10012000B5180008B9180008BD180008C118000863
:1001300038B5040000252078C00740F10D81DFF8B4
:10014000E40B006810F00C0004280BD0DFF8D40B8F
:10015000006810F00C0008282AD1DFF8C80B0068EE
:10016000C00325D54FF48040B0FA80F050F0200055
:10017000C0B24009C0B2012803D1DFF8AC0B00685F
:1001800006E04FF48040B0FA80F0DFF8A00B006882
:100190004FF48041B1FA81F111F01F01C840C0074E
:1001A00040F1DA806068002840F0D6800120A6E3A4
:1001B000DFF8740B006830F48030DFF86C1B0860E7
:1001C000DFF8640B006830F48020DFF85C1B086007
:1001D00000F0F1FD05004FF48040B0FA80F050F0DF
:1001E0002000C0B24009C0B2012803D1DFF8380BAB
:1001F000006806E04FF48040B0FA80F0DFF82C0B86
:1002000000684FF48041B1FA81F111F01F01C8403C
:10021000C00706D500F0CFFD401B6528DBD30320C7
:100220006DE36068B0F5803F08D1DFF8FC0A006834
:1002300050F48030DFF8F01A086038E06068002879
:1002400010D1DFF8E40A006830F48030DFF8D81A03
:100250000860DFF8D40A006830F48020DFF8C81A9C
:10026000086024E06068B0F5A02F10D1DFF8B80A6C
:10027000006850F48020DFF8B01A0860DFF8A80AA0
:10028000006850F48030DFF8A01A08600FE0DFF853
:10029000980A006830F48030DFF88C1A0860DFF8C4
:1002A000880A006830F48020DFF87C1A08606068F3
:1002B000002828D000F07FFD05004FF48040B0FA00
:1002C00080F050F02000C0B24009C0B2012803D134
:1002D000DFF8540A006806E04FF48040B0FA80F07E
:1002E000DFF8480A00684FF48041B1FA81F111F05B
:1002F0001F01C840C0072FD400F05DFD401B6528DA
:10030000DBD30320FBE200F056FD05004FF48040F4
:10031000B0FA80F050F02000C0B24009C0B201280D
:1003200003D1DFF8040A006806E04FF48040B0FA19
:1003300080F0DFF8F80900684FF48041B1FA81F1EC
:1003400011F01F01C840C00706D500F034FD401B66
:100350006528DBD30320D2E22078800740F1BF80FC
:10036000DFF8C009006810F00C0F0BD0DFF8B409FB
:10037000006810F00C00082839D1DFF8A8090068DF
:10038000C00334D45FF08040B0FA80F050F0200019
:10039000C0B24009C0B2012803D1DFF88C0900685F
:1003A00006E05FF08040B0FA80F0DFF88009006876
:1003B0005FF08041B1FA81F111F01F01C840C00720
:1003C00004D52069012801D0012098E2DFF85809FE
:1003D00000685FF0F851B1FA81F130F0F80062691D
:1003E00012FA01F10843DFF84019086077E020694C
:1003F000002842D001205FF00041B1FA81F1DFF81E
:10040000302942F8210000F0D6FC05005FF0804062
:10041000B0FA80F050F02000C0B24009C0B201280C
:1004200003D1DFF80409006806E05FF08040B0FA0D
:1004300080F0DFF8F80800685FF08041B1FA81F1E0
:1004400011F01F01C840C00706D400F0B4FC401BE7
:100450000328DBD3032052E2DFF8CC0800685FF00A
:10046000F851B1FA81F130F0F800626912FA01F145
:100470000843DFF8B418086031E000205FF0004165
:10048000B1FA81F1DFF8A82842F8210000F093FCCE
:1004900005005FF08040B0FA80F050F02000C0B25C
:1004A0004009C0B2012803D1DFF87C08006806E0EB
:1004B0005FF08040B0FA80F0DFF8700800685FF00D
:1004C0008041B1FA81F111F01F01C840C00706D583
:1004D00000F071FC401B0328DBD303200FE22078DF
:1004E000000754D5A06900282AD001205FF0004100
:1004F000B1FA81F1DFF83C2842F8210000F05BFC02
:1005000005005FF08040B0FA80F05FF08040B0FA04
:1005100080F0DFF8180800685FF08041B1FA81F1DF
:1005200011F01F01C840C00706D400F044FC401B76
:100530000328E6D30320E2E1012000F03FFC26E09F
:1005400000205FF00041B1FA81F1DFF8E82742F8BE
:10055000210000F030FC05005FF08040B0FA80F030
:100560005FF08040B0FA80F0DFF8C00700685FF00D
:100570008041B1FA81F111F01F01C840C00706D5D2
:1005800000F019FC401B0328E6D30320B7E12078D4
:10059000400740F1FE80DFF8A007006850F080506F
:1005A000DFF894170860DFF89007006810F08050BB
:1005B00000900098DFF88407006850F48070DFF83E
:1005C0007C17086000F0F7FB0500DFF87007006893
:1005D000C00506D400F0EFFB401B6528F5D30320CF
:1005E0008DE1DFF85C07006840084000DFF8501735
:1005F0000860DFF84C07006830F00400DFF84017AF
:10060000086000F0D8FB05005FF08040B0FA80F091
:100610005FF08040B0FA80F050F04000C0B2400976
:10062000C0B2022803D1DFF81807006802E0DFF843
:10063000FC0600685FF08041B1FA81F111F01F0102
:10064000C840C00708D500F0B6FB401B41F2893115
:100650008842D9D3032052E1E068012808D1DFF8AD
:10066000E006006850F00100DFF8D416086037E0BB
:10067000E068002810D1DFF8C80600684008400094
:10068000DFF8BC160860DFF8B806006830F0040038
:10069000DFF8AC16086023E0E068052810D1DFF829
:1006A000A006006850F00400DFF894160860DFF838
:1006B0009006006850F00100DFF8841608600FE033
:1006C000DFF87C06006840084000DFF87416086018
:1006D000DFF86C06006830F00400DFF8641608608C
:1006E000E06800282AD000F066FB05005FF080403B
:1006F000B0FA80F05FF08040B0FA80F050F0400037
:10070000C0B24009C0B2022803D1DFF83406006845
:1007100002E0DFF8180600685FF08041B1FA81F16D
:1007200011F01F01C840C00733D400F044FB401B48
:1007300041F289318842D9D30320E0E000F03BFB4D
:1007400005005FF08040B0FA80F05FF08040B0FAC2
:1007500080F050F04000C0B24009C0B2022803D17E
:10076000DFF8DC05006802E0DFF8C00500685FF034
:100770008041B1FA81F111F01F01C840C00708D5CE
:1007800000F019FB401B41F289318842D9D3032084
:10079000B5E0E069002800F0B180DFF88805006866
:1007A00010F00C00082800F0A780E069022875D13D
:1007B00000208021B1FA81F1DFF8742542F8210090
:1007C00000F0F9FA05004020B0FA80F050F0200067
:1007D000C0B24009C0B2012803D1DFF84C0500685F
:1007E00005E04020B0FA80F0DFF8400500684021C5
:1007F000B1FA81F111F01F01C840C00706D500F021
:10080000DAFA401B0328DED3032078E0206AB0F533
:10081000803F09D1DFF80C05006830F40030A16892
:100820000843DFF800150860DFF8F804006830F4CA
:100830007410216A0843616A0843DFF8E81408600D
:1008400001208021B1FA81F1DFF8E42442F821008F
:1008500000F0B1FA05004020B0FA80F050F020001E
:10086000C0B24009C0B2012803D1DFF8BC0400685F
:1008700005E04020B0FA80F0DFF8B00400684021C5
:10088000B1FA81F111F01F01C840C00736D400F061
:1008900092FA401B0328DED3032030E000208021A1
:1008A000B1FA81F1DFF8882442F8210000F083FAE0
:1008B00005004020B0FA80F050F02000C0B240099E
:1008C000C0B2012803D1DFF86004006805E04020D1
:1008D000B0FA80F0DFF8540400684021B1FA81F1E9
:1008E00011F01F01C840C00708D500F064FA401B92
:1008F0000328DED3032002E0012000E0002032BD07
:1009000070B504000D000026DFF83804006810F010
:100910000700A84280F0CE80DFF828040068C008F5
:10092000C0002843DFF81C140860DFF818040068D2
:1009300010F00700A84201D0012099E1207880073B
:1009400009D5DFF80404006830F0F000A16808431E
:10095000DFF8F41308602078C00740F16E8160680A
:10096000012820D14FF48040B0FA80F050F02000F0
:10097000C0B24009C0B2012803D1DFF8AC0300685F
:1009800006E04FF48040B0FA80F0DFF8A003006882
:100990004FF48041B1FA81F111F01F01C840C00746
:1009A00043D4012064E1606802281DD14020B0FAE0
:1009B00080F050F02000C0B24009C0B2012803D13D
:1009C000DFF86403006805E04020B0FA80F0DFF84B
:1009D0005C0300684021B1FA81F111F01F01C840A9
:1009E000C00722D4012043E15FF08040B0FA80F0DC
:1009F00050F02000C0B24009C0B2012803D1DFF896
:100A00002803006806E05FF08040B0FA80F0DFF86D
:100A10001C0300685FF08041B1FA81F111F01F0101
:100A2000C840C00701D4012022E1DFF81C030068A0
:100A30008008800061680843DFF80C13086000F04C
:100A4000BAF906006068012810D1DFF8FC020068DE
:100A500010F00C00042800F0F08000F0ACF9801BCE
:100A600041F289318842F0D3032001E16068022815
:100A700010D1DFF8D402006810F00C00082800F054
:100A8000DC8000F098F9801B41F289318842F0D374
:100A90000320EDE0DFF8B002006810F00C0F00F06A
:100AA000CC8000F088F9801B41F289318842F1D373
:100AB0000320DDE02078800709D5DFF88C0200688C
:100AC00030F0F000A1680843DFF87C12086020785D
:100AD000C00740F1A380606801281FD14FF4804017
:100AE000B0FA80F050F02000C0B24009C0B2012836
:100AF00002D18D48006806E04FF48040B0FA80F0E3
:100B0000DFF8280200684FF48041B1FA81F111F05A
:100B10001F01C840C00741D40120A9E06068022835
:100B20001CD14020B0FA80F050F02000C0B2400943
:100B3000C0B2012802D17C48006805E04020B0FA2C
:100B400080F0DFF8E80100684021B1FA81F111F08E
:100B50001F01C840C00721D4012089E05FF0804018
:100B6000B0FA80F050F02000C0B24009C0B20128B5
:100B700002D16D48006806E05FF08040B0FA80F076
:100B8000DFF8A80100685FF08041B1FA81F111F04F
:100B90001F01C840C00701D4012069E0DFF8A801A7
:100BA00000688008800061680843DFF89C110860D5
:100BB00000F001F90600606801280FD1DFF8880114
:100BC000006810F00C00042828D000F0F4F8801B16
:100BD00041F289318842F1D3032049E0606802285C
:100BE0000ED15948006810F00C00082816D000F00B
:100BF000E2F8801B41F289318842F2D3032037E0CA
:100C00005148006810F00C0F08D000F0D4F8801B99
:100C100041F289318842F3D3032029E04948006832
:100C2000C008C0002843474908604648006810F0E3
:100C30000700A84201D001201AE02078400707D51C
:100C40004148006830F4E060E16808433E490860CC
:100C50002078000708D53C48006830F460502169CE
:100C600050EAC10038490860002000F08CF80020EC
:100C700070BDF0B585B001A83449102200F0B0F87D
:100C800033480088ADF80000002100220023002432
:100C90000020244D2D68290011F00C05042D02D0F0
:100CA000082D03D026E02B4D280025E001AD11F4DE
:100CB00070164FF47057B7FA87F7FE40755D2C0039
:100CC000CD0311D5174D2D686E4615F400354FF440
:100CD0008047B7FA87F7FD40AD5D2A001D4DB5FB93
:100CE000F2F565432B0003E01B4D05FB04F52B00DB
:100CF000180001E0174D280005B0F0BD80B5FFF7E2
:100D0000B8FF084909685FF07062B2FA82F2134BCB
:100D100011F0F001D140C95CC84011490860104889
:100D2000006802BD0410024000100240241002407E
:100D300000004242800442421C1002400070004009
:100D400020100240002002400410024090170008CA
:100D5000360E000800127A0000093D00A0170008B6
:100D60000000002080B51C48006850F010001A49AF
:100D70000860032000F0C8F8002000F004F800F03C
:100D80000FF9002002BD10B50400FFF7B7FF4FF4C4
:100D90007A71B0FBF1F000F0D7F8002221005FF08B
:100DA000FF3000F0B7F8002010BD0C480068401C70
:100DB0000A490860704709480068704711B581B05A
:100DC0000024FFF7F8FF0400FFF7F5FF001B01996F
:100DD0008842F9D313BD0000002002400400002027
:100DE000103A07D330B4B1E83810103AA0E8381000
:100DF000F9D230BC530724BFB1E80810A0E80810AE
:100E000044BF51F8043B40F8043BD20724BF31F8FB
:100E1000022B20F8022B44BF0B7803707047083A6E
:100E200007D3B1E80810083A40F8043B40F804CB77
:100E3000F7D25307E4E7010210F007024D4B1B689D
:100E400019004FF6FF0319404B4B53EA0223194395
:100E5000484B1960704747480068C0F3022070474C
:100E6000012110F01F029140444A40B2430942F868
:100E70002310704710B440B2002808D50A01404B37
:100E800040B210F00F04E31803F8042C03E00A0149
:100E90003C4B40B2C25410BC704770B4030013F016
:100EA0000704D4F10706052E01D3042001E0D4F194
:100EB0000700261D072E01D2002500E0E51E0126B1
:100EC00016FA00F0401E0840A8400121A940491E22
:100ED0001140084370BC704710B50400601EB0F1AB
:100EE000807F01D301200EE0601E274908600F219A
:100EF0005FF0FF30FFF7BEFF0020244908600720A5
:100F000023490860002010BD10B504002000FFF741
:100F100093FF10BDF8B504000D0016000027FFF781
:100F20009AFF0700320029003800FFF7B6FF0100E2
:100F3000200040B2FFF79EFFF1BD10B50400200075
:100F400040B2FFF78DFF10BD10B504002000FFF781
:100F5000C3FF10BD042806D10D49096851F00401F2
:100F60000B4A116005E00A49096831F00401084A9A
:100F7000116070470CED00E00000FA0500E100E0B0
:100F800018ED00E000E400E014E000E018E000E00C
:100F900010E000E080B500F001F801BD70470000EE
:100FA00080B51748006850F00100154908601448E2
:100FB000006810F00100009000980520FFF7A4FFE2
:100FC000002200217FF00B00FFF7A4FF0022002188
:100FD0007FF00A00FFF79EFF002200217FF009004A
:100FE000FFF798FF002200217FF00300FFF792FF38
:100FF000002200215FF0FF30FFF78CFF01BD00BF32
:10100000181002402DE9F841002300240025002695
:101010005FF0000E5FF0000C6246102A80F05B81EA
:101020005FF0010C1CFA02FC6346D1F800C013EA21
:101030000C0C64469C4240F04C81D1F804C0BCF1D9
:10104000000F3DD0BCF1010F24D0BCF1020F2BD01A
:10105000BCF1030F4CD0BCF1110F1FD0BCF1120F2B
:1010600028D0DFF8CC82C4452AD0DFF8C882C44536
:1010700026D0DFF8C482C44522D0DFF8C082C44540
:101080001ED0DFF8BC82C4451AD0DFF8B882C44550
:1010900016D031E0D1F80CC066462DE0D1F80CC076
:1010A0001CF1040C664627E0D1F80CC01CF1080CBA
:1010B000664621E0D1F80CC01CF10C0C66461BE022
:1010C000D1F808C0BCF1000F03D15FF0040C6646F4
:1010D0000DE0D1F808C0BCF1010F04D15FF0080C9D
:1010E0006646036103E05FF0080C6646436103E077
:1010F0005FF0000C6646FFE7FF2C01D8070000E018
:10110000071DFF2C02D85FEA820E03E0B2F1080C43
:101110005FEA8C0ED7F800C05FF00F0818FA0EF8DF
:101120003CEA080C16FA0EF858EA0C0CC7F800C096
:10113000D1F804C05FEACC0C40F1CB80DFF808C2E4
:10114000DCF800C05CF0010CDFF8FC81C8F800C0DE
:10115000DFF8F4C1DCF800C01CF00108CDF8008015
:10116000DDF800C0DFF8E4C15FEA92085CF828C04F
:1011700065465FF00F0C12F003085FFA88F85FEA2B
:1011800088081CFA08FC35EA0C05DFF8C4C1604584
:1011900002D15FF0000C24E0DFF8B8C1604502D155
:1011A0005FF0010C1DE0DFF8B0C1604502D15FF0D7
:1011B000020C16E0DFF8A4C1604502D15FF0030C19
:1011C0000FE0DFF89CC1604502D15FF0040C08E03D
:1011D000DFF890C1604502D15FF0050C01E05FF0DF
:1011E000060C12F003085FFA88F85FEA88081CFA18
:1011F00008FC5CEA0505DFF854C15FEA92084CF888
:101200002850D1F804C05FEACC3C0AD5DFF858C1B9
:10121000DCF800C054EA0C0CDFF84C81C8F800C0C0
:1012200009E0DFF844C1DCF800C03CEA040CDFF858
:101230003881C8F800C0D1F804C05FEA8C3C0AD5F8
:10124000DFF828C1DCF800C054EA0C0CDFF81C8180
:10125000C8F800C009E0DFF814C1DCF800C03CEABF
:10126000040CDFF80881C8F800C0D1F804C05FEAB8
:10127000CC2C0AD5DFF8F8C0DCF800C054EA0C0C1E
:10128000DFF8EC80C8F800C009E0DFF8E4C0DCF863
:1012900000C03CEA040CDFF8D880C8F800C0D1F8E0
:1012A00004C05FEA8C2C0AD5DFF8C8C0DCF800C0A7
:1012B00054EA0C0CDFF8BC80C8F800C009E0DFF885
:1012C000B4C0DCF800C03CEA040CDFF8A880C8F821
:1012D00000C0521CA1E6BDE8F1810200936889B20A
:1012E0000B4202D00123180001E00023180040B295
:1012F000704752B2002A02D089B2016102E089B27D
:101300000B0403617047C26889B24A40C2607047EB
:1013100010B5040018480068A4B2204206D0A4B258
:1013200015480460200080B200F06DF810BD000088
:101330000000111000001210000021100000221007
:101340000000311000003210181002400800014067
:1013500000080140000C0140001001400014014051
:1013600000180140001C0140000401400404014039
:10137000080401400C0401401404014080B5FFF74B
:10138000F1FC00F009F800F03DF800F093F800F0EF
:10139000EDF800F00FF9FEE700B58FB001200590E1
:1013A0005FF4803006900020079002200C905FF4DC
:1013B00080300D905FF4E0100E9005A8FEF7B8FEA7
:1013C0000F20009002200190002002904FF48060D6
:1013D00003900020049002216846FFF791FAFFF77E
:1013E0008DFC4FF47A71B0FBF1F0FFF7ADFD0420F6
:1013F000FFF7B0FD002200215FF0FF30FFF78AFD0C
:101400000FB000BD704710B50400A4B2012C1FD16D
:101410001420FFF7D3FC01212048FFF75EFF0128CD
:1014200012D180211E48FFF76EFF012201211D48C5
:10143000FFF75FFF012240211B48FFF75AFF0122FF
:1014400080211948FFF755FF01201849086024E062
:10145000A4B2B4F5005F20D11420FFF7AFFC4FF425
:1014600000511348FFF739FF002812D180210C48A2
:10147000FFF749FF002201210A48FFF73AFF002247
:1014800040210948FFF735FF002280210648FFF779
:1014900030FF4FF400500549086010BD00080140BE
:1014A00000140140000C01400020014014040140E0
:1014B0000010014000B585B02948006850F00800D0
:1014C000274908602648006810F00800009000983E
:1014D0002348006850F48070214908602048006863
:1014E00010F48070009000981D48006850F48070DF
:1014F0001B4908601A48006810F48070009000983A
:10150000012201211748FFF7F4FE0122402116486D
:10151000FFF7EFFE012280211348FFF7EAFE0120CA
:101520000190012002900220049001A90D48FFF7CC
:1015300069FD40200190012002900220049001A941
:101540000948FFF75FFD80200190012002900220F2
:10155000049001A90448FFF755FD05B000BD000047
:1015600018100240000C01400020014000B585B079
:101570000E48006850F020000C4908600B480068D5
:1015800010F0200000900098002280210848FFF70A
:10159000B0FE80200190012002900220049001A959
:1015A0000348FFF72FFD05B000BD000018100240F2
:1015B0000014014000B585B01F48006850F00400D9
:1015C0001D4908601C48006810F004000090009855
:1015D0001948006850F01000174908601648006864
:1015E00010F0100000900098012001901348029024
:1015F0000220039001A91248FFF704FD4FF40050A8
:101600000190104802900120039001A90E48FFF7B5
:10161000F9FC002201210620FFF77CFC0620FFF7E1
:101620008CFC012201212820FFF774FC2820FFF701
:1016300084FC05B000BD000018100240000011102D
:10164000000801400000211000100140134800680C
:1016500050F0010011490860114800681149084024
:101660000F4908600D4800680F4908400B490860A1
:101670000A48006830F4802008490860084800687B
:1016800030F4FE00064908605FF41F000749086057
:101690005FF00060064908607047000000100240DB
:1016A000041002400000FFF8FFFFF6FE08100240A1
:1016B00008ED00E07047FEE7FEE7FEE7FEE7FEE725
:1016C00080B5FFF772FBFFF765FC01BD80B5012017
:1016D000FFF71EFE01BD80B54FF40050FFF718FE66
:1016E00001BD10B450F8041B79B1026843681218A8
:1016F0000830DC0744BFA9F10104E31852F8044B99
:1017000043F8044B091FF9D1ECE710BC7047000007
:1017100010B5074979441831064C7C44163404E06E
:101720000A68081D511888470146A142F8D110BD2A
:101730000800000018000000ABFFFFFF08000000D9
:101740008C000000000000200000000000F00BF8FA
:10175000002801D0FFF7DCFF0020C046C046FFF79D
:101760000DFE00F002F80120704700F001B8000003
:101770000746384600F002F8FBE7000080B5C04697
:10178000C046024A11001820ABBEFBE7260002004B
:1017900002030405060708090A0B0C0D0E0F1010B2
:1017A0000000000001020304010203040607080907
:1017B00001488047014800474D160008C11700083E
:1017C000C046C046C046C046FFF7C0FF00A24A045C
:1017D00000000000FFF7FEBFFFF7FEBFFFF7FEBFF0
:1017E000FFF7FEBFFFF7FEBFFFF7FEBFFFF7FEBF2D
:1017F000FFF7FEBFFFF7FEBFFFF7FEBFFFF7FEBF1D
:10180000FFF7FEBFFFF7FEBFFFF7FEBFFFF7FEBF0C
:10181000FFF7FEBFFFF7FEBFFFF7FEBFFFF7FEBFFC
:10182000FFF7FEBFFFF7FEBFFFF7FEBFFFF7FEBFEC
:10183000FFF7FEBFFFF7FEBFFFF7FEBFFFF7FEBFDC
:10184000FFF7FEBFFFF7FEBFFFF7FEBFFFF7FEBFCC
:10185000FFF7FEBFFFF7FEBFFFF7FEBFFFF7FEBFBC
:10186000FFF7FEBFFFF7FEBFFFF7FEBFFFF7FEBFAC
:10187000FFF7FEBFFFF7FEBFFFF7FEBFFFF7FEBF9C
:10188000FFF7FEBFFFF7FEBFFFF7FEBFFFF7FEBF8C
:10189000FFF7FEBFFFF7FEBFFFF7FEBFFFF7FEBF7C
:1018A000FFF7FEBFFFF7FEBFFFF7FEBFFFF7FEBF6C
:1018B000FFF7FEBFFFF7FEBFFFF7FEBFFFF7FEBF5C
:0418C000FFF7FEBF71
:04000005080017C117
:00000001FF
