:020000040800F2
:100000004810002045010008DF1300083F130008D6
:10001000DD130008D5010008B3150008000000003A
:100020000000000000000000000000005701000870
:10003000D7010008000000005B010008011400085F
:100040005F0100085F0100085F0100085F01000810
:100050005F0100085F0100085F0100085F01000800
:100060005F0100085F0100085F0100085F010008F0
:100070005F0100085F0100085F0100085F010008E0
:100080005F0100085F0100085F0100085F010008D0
:100090005F0100085F0100085F0100085F010008C0
:1000A0005F010008B51400085F0100085F01000847
:1000B0005F0100085F0100085F0100085F010008A0
:1000C0005F0100085F0100085F0100085F01000890
:1000D0005F0100085F0100085F0100085F01000880
:1000E0005F0100085F0100085F0100085F01000870
:1000F0005F0100085F0100085F0100085F01000860
:100100005F0100085F0100085F0100085F0100084F
:100110005F0100085F0100085F0100085F0100083F
:100120005F0100085F0100085F0100085F0100082F
:10013000DFF80CD000F018F800480047D51500088B
:10014000481000200648804706480047FEE7FEE7C3
:10015000FEE7FEE7FEE7FEE7FEE7FEE7FEE7FEE777
:100160006D14000831010008064C074D06E0E068F8
:1001700040F0010394E8070098471034AC42F6D3EE
:10018000FFF7DAFF401600086016000810B586B0C9
:100190000F480E49016047214160002484604FF4FC
:1001A0007A71C16004610921416100F036FF4FF4AA
:1001B0008050029002A9064800F076FF0094019456
:1001C0006946034800F001FF06B010BD002C014055
:1001D0000C000020FEE7FEE731B500F01DF90446F3
:1001E00000F01AF90099001B8842F9D338BD0000CD
:1001F0002DE9F84F00230024DFF8DC914FF00F08C1
:1002000009F1040A0AF1040B0BF1040E0127A740BF
:100210000A683A40BA4275D1DFF8C0C14D68A5EB13
:100220000C0665452BD00DDC032D34D005DC35B331
:10023000012D19D0022D2FD11BE0112D16D0122D1A
:100240002AD119E0B6F5881F19D006DCB6F5803F33
:1002500015D0B6F5801F1FD111E0B6F5001F0ED0E6
:10026000B6F5041F18D10AE0CB6815E0CB681B1D5A
:1002700012E0CB6808330FE0CB680C330CE08B68DE
:1002800023B1012B04D00823476105E0042303E0D8
:100290000823076100E00023FF2A01D8054601E09A
:1002A00000F1040502D84FEA840603E0A4F1080631
:1002B0004FEA86062F6808FA06FC27EA0C0703FABD
:1002C00006F647EA06072F604D68ED007ED5444DDF
:1002D000AE6946F00106AE61AD6905F00105009515
:1002E000404D24F003067719BE68A5072D0F08FAC4
:1002F00005FC26EA0C06DFF8F0C0604503D14FF09C
:10030000000C25E062E0DFF8E4C0604502D14FF068
:10031000010C1DE0DFF8D8C0604502D14FF0020C9F
:1003200016E0DFF8D0C0604502D14FF0030C0FE0BB
:10033000DFF8C4C0604502D14FF0040C08E0DFF8DC
:10034000BCC0604502D14FF0050C01E04FF0060C37
:100350000CFA05FC4CEA060CC7F808C04D68ED0322
:1003600005D5D9F800501543C9F8005004E0D9F874
:1003700000509543C9F800504D68AD0305D5DAF833
:1003800000501543CAF8005004E0DAF800509543D5
:10039000CAF800504D68ED0205D5DBF80050154352
:1003A000CBF8005004E0DBF800509543CBF8005048
:1003B0004D68AD0205D5DEF800501543CEF800506B
:1003C00004E0DEF800509543CEF80050641C102C79
:1003D000FFF41CAFBDE8F88F0004014000001110CD
:1003E000001002400000014000080140000C0140E4
:1003F000001001400014014000180140001C0140A1
:10040000C2684A40C2607047002A01D0016170474B
:10041000090401617047000001480068704700004E
:100420000400002002480168491C01607047000078
:100430000400002010B50748016841F01001016078
:10044000032000F075F8002000F006F800F016F820
:10045000002010BD0020024010B5044600F0D6F97F
:100460004FF47A72B0FBF2F000F095FD00222146C5
:10047000501E00F03DF8002010BD000008B51548E2
:10048000816941F001018161806900F00100009003
:10049000052000F04DF8002211466FF00B0000F02F
:1004A00027F8002211466FF00A0000F021F8002220
:1004B00011466FF0090000F01BF800221146101FD2
:1004C00000F016F80022BDE808401146501E00F06A
:1004D0000FB800000010024000F01F0201219140FF
:1004E0004009800000F1E020C0F8001170470000D2
:1004F000F0B40D460D4B1B68C3F30223C3F1070490
:10050000042C00D90424191D072901D2002300E07E
:10051000DB1E012606FA04F1491E294099409E403F
:10052000761E16403143F0BC00F05ABF0CED00E0DF
:1005300000F00701054A10684FF6FF03184040EA33
:100540000120034908431060704700000CED00E0F3
:100550000000FA052DE9F04704460F46DFF8A492A3
:10056000D9F80000A84D00F0070101204304460619
:100570004FF0020C41F28838B9426FD2D9F800101E
:1005800021F007013943C9F80010D9F8001001F033
:100590000701B94201D0BDE8F0872178890705D568
:1005A0006968A26821F0F001114369602178C907E8
:1005B00061D0616801290BD002291FD09CFAACF2EE
:1005C000B2FA82F242F0200252092DD02A682CE0C1
:1005D00093FAA3F2B2FA82F242F02002520901D059
:1005E0002A6800E06A6A93FAA3F3B3FA83F303F08C
:1005F0001F039840024223D10120CCE796FAA6F2CD
:10060000B2FA82F242F02002520901D02A6800E0D8
:100610006A6A96FAA6F3B3FA83F303F01F039840CD
:1006200002420DD10120B6E76A6A9CFAACF3B3FA34
:1006300083F303F01F039840024201D10120AAE78F
:10064000686820F0030008436860FFF7E5FE06468F
:10065000606801280AD0022815D021E025E0FFF7C4
:10066000DBFE801B404501D9032094E76868C0F396
:1006700081000128F3D1ADE0FFF7CEFE801B40459D
:1006800001D9032087E76868C0F381000228F3D10D
:10069000A0E0FFF7C1FE801B404501D903207AE7A7
:1006A000686810F00C0FF4D194E02178890705D523
:1006B0006968A26821F0F001114369602178C907D7
:1006C00079D0616801290BD002291FD09CFAACF2C5
:1006D000B2FA82F242F0200252092DD02A682CE0B0
:1006E00093FAA3F2B2FA82F242F02002520901D048
:1006F0002A6800E06A6A93FAA3F3B3FA83F303F07B
:100700001F039840024223D1012044E796FAA6F243
:10071000B2FA82F242F02002520901D02A6800E0C7
:100720006A6A96FAA6F3B3FA83F303F01F039840BC
:1007300002420DD101202EE76A6A9CFAACF3B3FAAB
:1007400083F303F01F039840024201D1012022E706
:10075000686820F0030008436860FFF75DFE064606
:100760006068012809D0022814D020E0FFF754FE69
:10077000801B404501D903200DE76868C0F3810064
:100780000128F3D117E0FFF747FE801B404501D950
:10079000032000E76868C0F381000228F3D10AE073
:1007A000FFF73AFE801B404501D90320F3E6686855
:1007B00010F00C0FF4D1D9F8000020F007003843F6
:1007C000C9F80000D9F8000000F00700B84201D0D5
:1007D0000120E0E62078400705D56868E16820F44C
:1007E000E060084368602078000706D568682169E2
:1007F00020F4605040EAC10068600020FFF72CFE42
:100800000020C8E6002002400010024000B500F0C1
:1008100017F808494968F02292FAA2F201F0F001B3
:10082000B2FA82F2D140044A515CC84003490860E0
:1008300000BD00000010024030160008000000203B
:1008400010B585B01AA0D0E90031D0E90220CDE979
:100850000131CDE903201AA000680090194B5968B6
:10086000194801F00C02042A1DD0082A1BD14FF4AC
:10087000701494FAA4F401F47012B4FA84F4E2400F
:1008800001ACA25CC90310D559684FF4003393FA48
:10089000A3F301F40031B3FA83F3D9401DF801103A
:1008A000B0FBF1F0504305B010BD08485043FAE7E3
:1008B00002030405060708090A0B0C0D0E0F1010A1
:1008C000010200000010024000127A0000093D0001
:1008D0002DE9F84F0446F94D20784FF00106C00786
:1008E00075D068687704C0F38100012807D0686874
:1008F000C0F3810002281DD16868C0031AD597FA99
:10090000A7F0B0FA80F040F02000400901D028683C
:1009100000E0686A97FAA7F1B1FA81F101F01F02CD
:1009200006FA02F1084252D0606800284FD1012037
:10093000BDE8F88F286820F480302860286820F40B
:1009400080202860FFF768FD804607E0FFF764FD20
:10095000A0EB0800642801D90320E9E797FAA7F083
:10096000B0FA80F040F02000400901D0286800E093
:10097000686A97FAA7F1B1FA81F101F01F0106FA4E
:1009800001F10842E2D16068B0F5803F11D0A8B112
:10099000B0F5A02F1CD0286820F48030286028688B
:1009A00020F4802028606068C8B3FFF735FD8046DA
:1009B0001FE0286840F480302860F4E7286820F4BD
:1009C00080302860286820F480202860EBE748E029
:1009D000286840F480202860286840F4803028602F
:1009E000E1E7FFF719FDA0EB0800642801D9032017
:1009F0009EE797FAA7F0B0FA80F040F02000400997
:100A000001D0286800E0686A97FAA7F1B1FA81F18D
:100A100001F01F0106FA01F10842E2D021E0FFE7F0
:100A2000FFF7FAFC804607E0FFF7F6FCA0EB0800B2
:100A3000642801D903207BE797FAA7F0B0FA80F089
:100A400040F02000400901D0286800E0686A97FA69
:100A5000A7F1B1FA81F101F01F0106FA01F1084294
:100A6000E2D12078DFF8588280074FF0000B4FF07A
:100A7000020732D568684FF0F80A10F00C0F07D063
:100A80006868C0F38100022828D16868C00325D4B3
:100A900097FAA7F0B0FA80F040F02000400901D0AA
:100AA000286800E0686A97FAA7F1B1FA81F101F0CD
:100AB0001F0106FA01F1084204D02069012801D083
:100AC000012035E728689AFAAAF26169B2FA82F23F
:100AD00020F0F8009140084328605CE0206990B362
:100AE00096FAA6F0B0FA80F048F82060FFF794FC80
:100AF000814607E0FFF790FCA0EB0900022801D92E
:100B0000032015E797FAA7F0B0FA80F040F0200034
:100B1000400901D0286800E0686A97FAA7F1B1FAA5
:100B200081F101F01F0106FA01F10842E2D02868C4
:100B30009AFAAAF26169B2FA82F220F0F8009140C2
:100B40000843286027E0FFE796FAA6F0B0FA80F0A5
:100B500048F820B0FFF760FC814607E0FFF75CFC37
:100B6000A0EB0900022801D90320E1E697FAA7F0DB
:100B7000B0FA80F040F02000400901D0286800E081
:100B8000686A97FAA7F1B1FA81F101F01F0106FA3C
:100B900001F10842E2D12078000770D5A069C0B306
:100BA00096FAA6F0B0FA80F008EB8000C0F88064F6
:100BB000FFF732FC814607E0FFF72EFCA0EB0900AF
:100BC000022801D90320B3E697FAA7F0B0FA80F023
:100BD00040F06000B6EB501F01D128680BE097FA97
:100BE000A7F0B0FA80F040F06000B7EB501F01D1E1
:100BF000286A00E0686A97FAA7F1B1FA81F101F07A
:100C00001F0206FA02F10842D6D00120FFF7E4FAEB
:100C100035E0FFE796FAA6F0B0FA80F008EB800026
:100C2000C0F880B4FFF7F8FB814607E0FFF7F4FB5C
:100C3000A0EB0900022801D9032079E697FAA7F072
:100C4000B0FA80F040F06000B6EB501F01D1286888
:100C50000BE097FAA7F0B0FA80F040F06000B7EB35
:100C6000501F01D1286A00E0686A97FAA7F1B1FA2B
:100C700081F101F01F0206FA02F10842D6D1207874
:100C8000400770D5E86940F08050E861E86900F0FD
:100C900080500090DFF82CA0DAF8000040F480705B
:100CA000CAF80000FFF7B8FB81460DE0FFF7B4FB80
:100CB000A0EB0900642807D9032039E600100240A0
:100CC0000000424200700040DAF80000C005EDD597
:100CD000286A20F001002862286A20F004002862B7
:100CE000FFF79AFB814641F2883A07E0FFF794FB51
:100CF000A0EB0900504501D9032019E697FAA7F0A7
:100D0000B0FA80F040F04000B6EB501F01D12868E7
:100D10000BE097FAA7F0B0FA80F040F04000B7EB94
:100D2000501F01D1286A00E0686A97FAA7F1B1FA6A
:100D300081F101F01F0106FA01F10842D6D1E06805
:100D4000012811D0A8B105281CD0286A20F0010084
:100D50002862286A20F004002862E068C8B3FFF720
:100D60005BFB81461FE06EE0286A40F001002862CC
:100D7000F3E7286A20F001002862286A20F00400C6
:100D80002862EAE7286A40F004002862286A40F0F6
:100D900001002862E1E7FFF73FFBA0EB09005045A7
:100DA00001D90320C4E597FAA7F0B0FA80F040F02B
:100DB0004000B6EB501F01D128680CE097FAA7F06D
:100DC000B0FA80F040F04000B7EB501F02D1286A23
:100DD00001E00BE0686A97FAA7F1B1FA81F101F03E
:100DE0001F0206FA02F10842D5D02CE0FFF714FBEF
:100DF000814607E0FFF710FBA0EB0900504501D941
:100E0000032095E597FAA7F0B0FA80F040F0400093
:100E1000B6EB501F01D128680BE097FAA7F0B0FAA3
:100E200080F040F04000B7EB501F01D1286A00E08D
:100E3000686A97FAA7F1B1FA81F101F01F0206FA88
:100E400002F10842D6D1E06980B36968C1F381013B
:100E5000022970D04FF080794FF00077022809D036
:100E600099FAA9F0B0FA80F048F820B0FFF7D4FA68
:100E7000044668E099FAA9F0B0FA80F048F820B08A
:100E8000FFF7CAFA824607E0FFF7C6FAA0EB0A00AE
:100E9000022801D903204BE597FAA7F0B0FA80F0B9
:100EA00040F02000400902D0286801E060E0686A54
:100EB00097FAA7F1B1FA81F101F01F0106FA01F1E9
:100EC0000842E1D1206AB0F5803F05D16868A16889
:100ED00020F4003008436860D4E9080108436968D9
:100EE00021F474110843686099FAA9F0B0FA80F00F
:100EF00048F82060FFF790FA044606E0FFF78CFA06
:100F0000001B022801D9032012E597FAA7F0B0FAD6
:100F100080F040F02000400901D0296800E0696AB3
:100F200097FAA7F0B0FA80F000F01F0006FA00F080
:100F30000142E3D01CE01DE0FFF76EFA001B02281F
:100F400001D90320F4E497FAA7F0B0FA80F040F05A
:100F50002000400901D0296800E0696A97FAA7F0EB
:100F6000B0FA80F000F01F0006FA00F00142E3D171
:100F70000020DDE40120DBE44FF0E021042804D070
:100F8000086920F0040008617047086940F0040017
:100F900008617047704710B5401EB0F1807F01D3E3
:100FA000012010BD4FF0E02460610F21601700F0B8
:100FB00017FA0020A06107202061002010BD10B5A5
:100FC000FFF7E8FF10BD7047704730B590F8382044
:100FD000012A20D0012380F83830022280F83920FD
:100FE0000268546824F070045460026854680D6804
:100FF0002C4354600268946824F080049460026872
:10100000946849680C43946080F83930002180F876
:101010003810002030BD022030BD10B50446002C31
:1010200003D094F8390010B107E0012010BD002072
:1010300084F83800204600F00DF8022084F83900CA
:10104000211D206800F03CFA012084F839000020BE
:1010500010BD000008B500680B49884212D10B484A
:10106000816941F400618161806900F40060009051
:10107000002201211920FFF73BFABDE808401920A2
:10108000FFF72ABA08BD0000002C01400010024002
:101090000168CA6842F00102CA600068016841F054
:1010A000010101600020704770B5044694F83800D3
:1010B000012817D0012584F83850022084F839001F
:1010C0002068826822F0770222F47F4282600868FA
:1010D00050283AD00DDC20285FD005DCA0B31028C2
:1010E00064D155E0022070BD30285BD040285DD12E
:1010F0003FE0602833D070280CD0B0F5805F03D07B
:10110000B0F5005F52D113E02068816821F007013B
:1011100081604BE0CB68D1E90121206800F014FA2E
:101120002068816821F0770141F0770181603DE01E
:10113000CB68D1E90121206800F006FA20688168B7
:1011400041F48041816031E01DE0CA68496820684F
:1011500000F00CFA5021206800F000FA26E0CA687E
:101160004968206800F013FA6021206800F0F6F961
:101170001CE0CA684968206800F0F8F9402120683E
:1011800000F0ECF912E00021206800F0E7F90DE032
:101190001021206800F0E2F908E02021206800F02A
:1011A000DDF903E03021206800F0D8F938346570AB
:1011B0000020207070BD704770B50446206801693A
:1011C0004FF00005C943890716D4C168C943890790
:1011D00012D4E91E01610120207620688069800711
:1011E00003D02046FFF7E7FF05E0204600F09BF81C
:1011F000204600F099F8257620680169C94349071F
:1012000018D4C168C943490714D46FF004010161BF
:10121000022020762068806910F4407F03D02046A9
:10122000FFF7C9FF05E0204600F07DF8204600F0FA
:101230007BF8257620680169C943090717D4C1687E
:10124000C943090713D46FF0080101610420207617
:101250002068C069800703D02046FFF7ACFF05E097
:10126000204600F060F8204600F05EF82576206801
:101270000169C943C90618D4C168C943C90614D451
:101280006FF010010161082020762068C06910F419
:10129000407F03D02046FFF78EFF05E0204600F098
:1012A00042F8204600F040F8257620680169C943DD
:1012B000C90708D1C168C943C90704D1891E0161A2
:1012C000204600F033F820680169C943090609D4B3
:1012D000C168C943090605D46FF080010161204649
:1012E000FFF771FE20680169C943490609D4C16846
:1012F000C943490605D46FF040010161204600F062
:101300001DF820680169C94389060BD4C168C94327
:10131000890607D46FF0200101612046BDE87040C6
:10132000FFF752BE70BD7047704700000248018849
:10133000491C018070470000080000207047FEE74C
:10134000F0B585B02248816941F008018161816969
:1013500001F008010091816941F480718161816926
:1013600001F480710091816941F48071816180692B
:1013700000F480700090174F002201213846FFF7DB
:1013800043F8154E002240213046FFF73DF8002279
:1013900080213046FFF738F8012401940294022599
:1013A000049501A93846FEF723FF402001900294DE
:1013B000049501A93046FEF71BFF8020019002949E
:1013C000049501A93046FEF713FF05B0F0BD0000FB
:1013D00000100240000C014000200140FEE7704771
:1013E0000907090E002806DA00F00F0000F1E020DE
:1013F00080F8141D704700F1E02080F80014704759
:1014000010B5FFF70FF8BDE81040FFF7D8BD30B5B5
:101410008FB0012005900004069000240794022557
:101420000C950D904FF4E0100E9005A8FFF750FAC0
:101430000F20009001950294680203900494022109
:101440006846FFF787F8FFF7E1F94FF47A71B0FBD0
:10145000F1F0FFF7A0FD0420FFF78EFD00221146FA
:10146000501EFFF745F80FB030BD00000D48016871
:1014700041F00101016041680B4A1140416001687F
:101480000A4A11400160016821F48021016041682D
:1014900021F4FE0141604FF41F0181600449C00343
:1014A00008607047001002400000FFF8FFFFF6FEE2
:1014B00008ED00E00148FFF77FBE00000C000020AF
:1014C0002DE9F04102681B4D1B4E1C4FDFF870C028
:1014D0001C4B4FF08048A84209D0984207D04045A5
:1014E00005D0B04203D0B84201D0604503D122F00C
:1014F00070044A682243A84209D0984207D0404568
:1015000005D0B04203D0B84201D0604503D122F4E7
:101510004074CA68224302608A68C2620A688262B2
:10152000A84201D0984201D10969016301214161BA
:10153000BDE8F081002C014000040040000800409C
:10154000000C00400034014010B5846824F47F444E
:1015500042EA03220A432243826010BD826822F0DD
:1015600070020A4342F007018160704710B5036AB8
:10157000046A24F001040462846924F0F00444EA5B
:10158000021423F00A020A438461026210BD10B5FE
:10159000036A23F0100303628469036A24F470442D
:1015A00044EA023223F0A00343EA0111826101629E
:1015B00010BDFEE702E008C8121F08C1002AFAD1D8
:1015C00070477047002001E001C1121F002AFBD1C3
:1015D00070470000FEF72EFFFFF719FFFFF7B0FE80
:1015E000FEF7D4FD0E48FFF753FD0E4E01224021B9
:1015F0003046FEF709FF0C4C0C4F0025218864296A
:10160000FCD1258001213846FEF7FAFE4021304604
:10161000FEF7F6FE80213046FEF7F2FEEEE7000010
:101620000C0000200020014008000020000C0140B8
:101630000000000001020304010203040607080978
:1016400060160008000000200C000000B41500081F
:101650006C1600080C0000203C100000C4150008A7
:0C16600000A24A0400000000000000008E
:0400000508000131BD
:00000001FF
