:020000040800F2
:10000000A005002001010008B11D00082F1A0008FA
:10001000A11D000841040008A923000800000000F9
:10002000000000000000000000000000151E000895
:100030004304000800000000F11D0008C51E000870
:100040001B0100081B0100081B0100081B01000820
:100050001B0100081B0100081B0100081B01000810
:100060001B0100081B0100081B0100081B01000800
:100070001B0100081B0100081B0100081B010008F0
:100080001B0100081B010008110300081B010008E8
:100090001B0100081B0100081B0100085B0400088D
:1000A0001B010008951F00081B0100081B01000828
:1000B0001B0100081B0100081B0100081B010008B0
:1000C0001B0100081B0100081B0100081B010008A0
:1000D0001B0100081B0100081B0100081B01000890
:1000E000450400081B0100081B010008DFF80CD0C4
:1000F00000F0FCF80048004729240008A005002073
:100100000648804706480047FEE7FEE7FEE7FEE7B1
:10011000FEE7FEE7FEE7FEE7FEE7FEE74D1F00080D
:10012000ED000008F0B480EA0102D40F4200B2EB07
:10013000410F02D20246084611464A0042D0C30D82
:10014000DDB2C1F3C752AD1A202D35DAC1F3160165
:1001500041F4000204B15242C5F1200602FA06F150
:100160002A411044B3EBD05F23D0C4B1012DA0EBE2
:10017000C35009DCF0BC4FF0004202EAC352DBB2CC
:1001800000F5000000F083B8400000F1807000EB43
:10019000C350A0F1807040EAD170490009E04908DD
:1001A00041EAC071A0EBC35000F50000400800EB2D
:1001B000C350F0BC00F062B86142012202EB410181
:1001C000001BF6E7F0BC704781F00041AAE780F021
:1001D0000040A7E780EA010210B502F000434000AA
:1001E00022D04A001FD0010E01EB1261C0F356006D
:1001F000C2F3560240F4000042F40002A0FB0220C9
:1002000000047F39140400D0401C50EA124001D48D
:100210004000491EC2B20C0604EBD010401C40083E
:10022000802A02D003E0002010BD20F00100002948
:1002300000DA0020184310BDC10F80EAE0700844C6
:10024000CA079623002100F022B800F0004220F0F7
:100250000040C10DC0F3160040F400007F2901DA10
:1002600000207047962903DCC1F19601C84001E0E7
:1002700096398840002AF4D0404270470029A8BF30
:100280007047401C490008BF20F00100704710B4BF
:10029000B0FA80FC00FA0CF050EA010404BF10BC74
:1002A000704749B1CCF1200421FA04F411FA0CF1A1
:1002B00018BF012121430843A3EB0C01CB1D4FEADA
:1002C00000614FEA102042BF002010BC704700EBD5
:1002D000C35010440029A4BF10BC7047401C490003
:1002E00008BF20F0010010BC70470000064C074D0D
:1002F00006E0E06840F0010394E8070098471034F6
:10030000AC42F6D3FFF7F6FE682500088825000802
:10031000014800F054B900006C00002070B504469C
:1003200000688168C943C9071CD1816821F00101B7
:10033000816000F0BDFB05460FE000BF00F0B8FB98
:10034000401B022809D9A06A40F01000A062E06AB0
:1003500040F00100E062012070BD20688068C04369
:10036000C007EBD0002070BD3148816941F0040125
:10037000816130490A6822F470420A60816941F45F
:1003800000718161C16841F40071C160C16821F4EC
:100390000071C160416821F440414160416841F40D
:1003A0000041416024480168244A1140016001680D
:1003B0000160016821F480710160001D016821F075
:1003C00002010160016821F460210160016841F4CB
:1003D00060210160016841F480110160016821F42D
:1003E00000610160144928310A6822F470020A6031
:1003F0000A6800220A6010490C310A6822F470422F
:100400000A600A6842F460620A60016841F0010112
:100410000160016841F00801016001680907FCD42E
:10042000016841F00401016001684907FCD470478C
:10043000001002400008014004240140FFFFF000CA
:10044000FEE7704710B54FF4006000F039FABDE8E0
:1004500010404FF4805000F033BA202000F030BA42
:100460000B490A6822F01F020A600A6802430A6008
:1004700007482C38016841F4800101600448343891
:1004800001688907FCD502481830006880B27047BF
:100490003424014070B500240D460646234608E08A
:1004A000F0B2FFF7DDFF0444C621491EFDD25B1CFC
:1004B000DBB2AB42F4DB94FBF5F070BD704700009B
:1004C000F8B50024009490F824202546012A12D083
:1004D000012280F824204A681F23072A0DD20668CB
:1004E000776B521E02EB820293409F430B6893404E
:1004F0001F43776319E00220F8BD06680D2A0AD26F
:10050000376BD21F02EB820293409F430B689340EC
:100510001F43376309E0F76A0D3A02EB820293400A
:100520009F430B6893401F43F7620A6807230668DE
:100530000A2A0AD3F7680A3A02EB420293409F4321
:100540008B6893401F43F76008E0376902EB420273
:1005500093409F438B6893401F4337610A68102A7A
:1005600001D0112A20D1124B02689A4217D1936808
:100570001B0219D4936843F400039360096810299F
:1005800012D10C490C4A0968B1FBF2F101EB81016F
:10059000490000E0491E00910029FBD104E0816A76
:1005A00041F020018162012480F824502046F8BDEA
:1005B000002401402C00002040420F00704710B57D
:1005C000044600684168890626D50168890723D555
:1005D000A16AC90603D4A16A41F40071A1628168CD
:1005E000C1F34241072910D1E16871B9416821F096
:1005F00020014160A06A20F48070A062A06AC0045B
:1006000003D4A06A40F00100A0622046FFF7D6FFA5
:1006100021686FF0120008602068416809062ED535
:10062000016849072BD5A16AC90603D4A16A41F420
:100630000051A1628168C1F30231072909D04168E4
:10064000490515D48168C1F34241072910D1E168F9
:1006500071B9416821F080014160A06A20F48050A6
:10066000A062A06AC00503D4A06A40F00100A062A5
:100670002046FFF723FF21686FF00C000860206818
:10068000416849060DD50068C0070AD0A06A40F449
:100690008030A062204600F093F821686FF00100DE
:1006A000086010BD2DE9F0414FF0000704003D4601
:1006B0007ED0A06A002628B9E66284F8246020462D
:1006C00000F080F82046FFF729FEA16A01F0100132
:1006D000014304D0A06A40F01000A06268E0A16A63
:1006E00021F4885141F00201A1626268E169E36886
:1006F0000A4347EA43010A43A1684FF48077B942AD
:1007000008D0012906D00021D4F814C0BCF1010F93
:1007100002D00AE03946F7E7F3B1A36A43F02003B9
:10072000A362E36A43F00103E3622368D3F804C0E1
:100730002CF4694C4CEA010CC3F804C02368996896
:10074000DFF870C001EA0C0111439960A168B94259
:100750000BD0012909D00CE0DFF85CC0A3690CEBD9
:1007600043330B4343F40061DFE7218A0D05A5F510
:1007700080152168CB6A23F470032B43CB62216878
:1007800089680E4B1940914208D1E662A16A21F0B6
:10079000020141F00101A162BDE8F081A06A20F0F0
:1007A000020040F01000A062E06A40F00100E06248
:1007B0000120F1E7FDF7E1FF00E0FFFFFE0E1FFF64
:1007C0007047000000B500680F4985B0884218D115
:1007D0000E48816941F4007181618069694600F4C5
:1007E000007004900820009003200190084800F059
:1007F00073F800220221122000F0EEF9122000F01E
:10080000DFF905B000BD00000024014000100240E7
:100810000008014070B5044600F04AF90546601C26
:1008200002D004480078044400F042F9401BA04282
:10083000FAD370BD200000202DE9F0414FF400658F
:100840001B4F1C4C1C4EA8420DD10A20FFF7E2FFA3
:100850002946384600F01EF910B92068643811E0C6
:100860003560BDE8F0814FF48055A8420CD10A20D4
:10087000FFF7D0FF2946384600F00CF90028EFD1E9
:10088000206864302060EBE72028EAD10A20FFF7D7
:10089000C1FF2021384600F0FDF820B90748017853
:1008A00021B10021017020203060DAE70121F9E751
:1008B0000008014010000020140401400400002042
:1008C000044910B50A68024202D00860FFF7B4FF7D
:1008D00010BD0000140401402DE9F84FDFF890A18D
:1008E00000220AF1040B144601274FF00F090BF107
:1008F000040E00BF0B6807FA04F52B40AB4274D11D
:10090000DFF870C14E68A6EB0C0866452BD00DDCF5
:10091000032E34D005DC36B3012E19D0022E2FD190
:100920001BE0112E16D0122E2AD119E0B8F5881F1F
:1009300019D006DCB8F5803F15D0B8F5801F1FD15F
:1009400011E0B8F5001F0ED0B8F5041F18D10AE069
:10095000CA6815E0CA68121D12E0CA6808320FE0C2
:10096000CA680C320CE08A682AB1012A4FF00802EA
:1009700003D0456104E0042202E0056100E00022AA
:10098000FF2B01D8064601E000F104064FEA84057A
:1009900001D9A5F12005D6F800C009FA05F82CEA1E
:1009A000080C02FA05F54CEA050CC6F800C04D68C3
:1009B000ED0057D5304DAE6946F00106AE61AD6928
:1009C00024F0030605F0010500952C4D06EB050CFF
:1009D000DCF80850A6074FEA167809FA08F6B5437E
:1009E000274EB04202D1002610E03BE0254EB04237
:1009F00001D101260AE0244EB04201D1022605E0D1
:100A0000224EB04201D1032600E0042606FA08F681
:100A10002E43CCF808604D68DAF80060ED035546C7
:100A200001D51E4300E09E432E604D68DBF8006058
:100A3000AD035D4601D51E4300E09E432E604D6828
:100A4000DEF80060ED02754601D51E4300E09E43CE
:100A50002E604D68AD020E4D2E6801D51E4300E09C
:100A60009E432E60641C102CFFF444AFBDE8F88F49
:100A7000000401400000111000100240000001407D
:100A800000080140000C014000100140001401402A
:100A90000C0401408068084000D001207047C26803
:100AA0004A40C26070470AB1016170470904FBE720
:100AB00001488068704700002000002002488168DB
:100AC000027811448160704720000020074810B56B
:100AD000016841F010010160032000F09DF8002042
:100AE00000F006F800F024F8002010BD00200240BD
:100AF00070B50D4D04464FF47A712878B1FBF0F0D3
:100B00000A490968B1FBF0F000F0A3FB48B9102CCA
:100B100007D200222146501E00F05EF800206C60D3
:100B200070BD012070BD0000200000202C000020BE
:100B3000214808B5816941F001018161816901F0B5
:100B400001010091C16941F08051C161C06900F0AB
:100B500080500090032000F05FF8002211466FF0F3
:100B60000B0000F039F8002211466FF00A0000F087
:100B700033F8002211466FF0090000F02DF8002232
:100B80001146501F00F028F800221146101F00F0F7
:100B900023F800221146901E00F01EF80022114694
:100BA000501E00F019F80548416821F0E06141F05D
:100BB0000071416008BD00000010024000000140CB
:100BC00000F01F02012191404009800000F1E02067
:100BD000C0F8001170470000F0B40E4B1B680C46C3
:100BE000C3F30223C3F10705042D00D90425191D01
:100BF000072901D2002300E0DB1E012606FA05F1D9
:100C0000491E214099409E40761E16403143F0BC5B
:100C100001F0CFB80CED00E0064900F007020868CB
:100C20004FF6FF03184040EA0220034A10430860D1
:100C3000704700000CED00E00000FA052DE9F843D4
:100C400005460078354CC00754D0E0690026C00046
:100C500008D4E06940F08050E061E069012600F0CE
:100C6000805000902E480168C90512D40168804662
:100C700041F480710160FFF71BFF074605E000BFEC
:100C8000FFF716FFC01B642823D8D8F80000C00562
:100C9000F6D5206A10F4407021D0A98801F4407183
:100CA00081421CD0206A1F49012220F440700A6052
:100CB00000220A602062C00711D0FFF7F9FE074644
:100CC00041F2883808E000BFFFF7F2FEC11B414542
:100CD00002D90320BDE8F883206A8007F4D5206A92
:100CE000696820F44070084320621EB1E06920F07A
:100CF0008050E0612878800705D56068A96820F4F5
:100D00004040084360602878C00605D56068E968FF
:100D100020F48000084360600020DBE70010024000
:100D200000700040400442422DE9F047DFF83C816A
:100D300005460E46D8F8000000F00700B0420CD27D
:100D4000D8F8001021F007013143C8F80010D8F896
:100D5000000000F00700B04263D12878444C8007BF
:100D600005D56068A96820F0F00008436060287825
:100D7000C00745D06868012816D02168022816D01F
:100D8000890700294DDA616821F0030101436160A0
:100D9000FFF78EFE6968074641F2883001290FD0BF
:100DA0000229814619D027E021688903E9E78901F2
:100DB000E7E700BFFFF77CFEC11B494501D918E0FA
:100DC00081466068C0F381000128F3D118E000BFBC
:100DD000FFF76EFEC11B49450BD86068C0F3810068
:100DE0000228F5D10CE000BFFFF762FEC11B4945A8
:100DF00002D90320BDE8F087606810F00C0FF3D132
:100E0000D8F80010404601F00701B1420BD9016843
:100E100021F0070131430160006800F00700B04293
:100E200001D00120E6E72878400705D56068E96829
:100E300020F4E060084360602878000706D5606809
:100E4000296920F4605040EAC100606000F03CF87D
:100E50006168084AC1F30311515CC8400649086043
:100E60000020FFF745FE0020C4E7000000200240FC
:100E700000100240502500082C00002001480068A6
:100E8000704700002C0000200448054900684968AC
:100E9000044AC1F30221515CC84070472C00002075
:100EA00000100240602500080448054900684968B0
:100EB000044AC1F3C221515CC84070472C00002095
:100EC000001002406025000812A185B00FC98DE80E
:100ED0000F0014A0144A006804905168134801F0F0
:100EE0000C03042B10D0082B0ED1C1F38343C9038C
:100EF0001DF803000AD5516804AAC1F34041515CB2
:100F00000A4A5043B0FBF1F005B070470849484326
:100F1000FAE7000002030405060708090A0B0C0D96
:100F20000E0F1010010200000010024000127A00A3
:100F300000093D002DE9F84F04460078B94DC0077F
:100F400048D06868C0F38100012807D06868C0F302
:100F50008100022809D16868C00306D5286880038B
:100F600038D5606800286FD034E06068B0F5803F05
:100F70000BD010B1B0F5A02F11D0286820F480302C
:100F80002860286820F4802002E0286840F480303F
:100F90002860606888B1FFF78BFD064609E0286885
:100FA00040F480202860F0E7FFF782FD801B642872
:100FB00075D828688003F7D50CE0FFF779FD064661
:100FC00005E000BFFFF774FD801B6428F0D8286897
:100FD0008003F7D42078944E80074FF001094FF03A
:100FE00000083BD5686810F00C0F07D06868C0F3A4
:100FF0008100022809D16868C00306D428688007E8
:1010000014D5206901281FD110E02069B0B1C6F8BD
:101010000090FFF74DFD074605E000BFFFF748FDD4
:10102000C01B0228C4D828688007F7D528686169E2
:1010300020F0F80040EAC10028600FE0C6F8008008
:10104000FFF736FD074606E0E9E000BFFFF730FD99
:10105000C01B022823D828688007F7D4207800070F
:101060002CD57248A169D9B1C0F80090FFF720FDD6
:10107000074604E0FFF71CFDC01B02280FD8686A72
:101080008007F7D56A484FF4FA510068B0FBF1F0D9
:10109000009000BF0098411E0091FAD20EE080E05F
:1010A000C0F80080FFF704FD074604E0FFF700FDED
:1010B000C01B022875D8686A8007F7D420784007DB
:1010C00060D5E8690027C00008D4E86940F0805086
:1010D000E861E869012700F08050009055480168F8
:1010E000C90513D40168834641F480710160FFF79C
:1010F000DFFC824606E000BFFFF7DAFCA0EB0A0047
:1011000064284ED8DBF80000C005F5D5E06801285A
:101110000AD008B1052813D0286A20F001002862FF
:10112000286A20F0040002E0286A40F001002862EA
:10113000E06841F2883B98B1FFF7BAFC82460BE0C9
:10114000286A40F004002862EEE700BFFFF7B0FC19
:10115000A0EB0A0159455AD8286A8007F6D50CE059
:10116000FFF7A6FC824605E0FFF7A2FCA0EB0A0110
:1011700059454CD8286A8007F6D41FB1E86920F099
:101180008050E861E06988B36968C1F38101022990
:1011900045D00228C6F8608004D0FFF789FC0446D9
:1011A00038E034E0FFF784FC074604E0FFF780FCFA
:1011B000C01B02282BD828688001F7D4206AB0F51C
:1011C000803F05D16868A16820F40030084368605A
:1011D000D4E908010843696821F474110843686080
:1011E000C6F86090FFF764FC044606E015E000BF17
:1011F000FFF75EFC001B022809D828688001F7D59C
:101200000BE000BFFFF754FC001B022802D90320AB
:10121000BDE8F88F28688001F4D40020F8E70120A9
:10122000F6E7000000100240000042428004424203
:101230002C000020007000404FF0E02104280869D5
:1012400003D020F004000861704740F00400FAE782
:10125000704710B5401EB0F1807F01D3012010BD52
:101260004FF0E02460610F21601700F0A2FD002024
:10127000A06107202061002010BD10B5FFF7E8FF36
:1012800010BD7047704730B590F83C20012A20D03F
:10129000012280F83C20022380F83D3003685C681E
:1012A00024F070045C6003685C680D682C435C602B
:1012B00003689C6824F080049C6003689C6849680B
:1012C0000C439C6080F83D20002180F83C100846CB
:1012D00030BD022030BD10B5040003D094F83D00AD
:1012E00010B107E0012010BD002084F83C0020462A
:1012F00000F00CF8022084F83D00211D206800F069
:101300004FFE012084F83D00002010BD08B5114AB1
:1013100001681148914211D1816941F400618161F4
:101320008069002200F40060009001211920FFF77D
:1013300053FCBDE808401920FFF742BC074A914220
:1013400007D1C16941F00201C161C06900F002002A
:10135000009008BD002C0140001002400004004035
:101360000168CA6842F00102CA600068016841F081
:10137000010101600020704770B5044690F83C0000
:10138000012817D0012584F83C50022084F83D0044
:101390002068826822F0770222F47F428260086827
:1013A000502837D00DDC202859D005DC88B3102810
:1013B00041D151E0022070BD302853D040283AD1AD
:1013C0003FE060282ED070280BD0B0F5805F03D0AE
:1013D000B0F5005F2FD110E02068816821F007018F
:1013E00015E0CB68D1E90121206800F01AFE2168E0
:1013F000886840F0770088601DE0CB68D1E9012162
:10140000206800F00EFE2068816841F48041816010
:1014100011E01EE0CA684968206800F0B7FE50215C
:10142000206806E0CA684968206800F0C0FE6021B4
:10143000206800F000FE84F83D50002084F83C0055
:1014400070BDCA684968206800F0A0FE402120688D
:10145000EFE700212068ECE710212068E9E7202170
:101460002068E6E730212068E3E72DE9F0410D46EA
:10147000040003D094F83D0018B108E00120BDE855
:10148000F081002084F83C00204600F039F802206A
:1014900084F83D002068816821F007018160211DEA
:1014A000206800F07DFD226890689169166A2B68BB
:1014B000AF69034340F20330814341EA0721A86842
:1014C000EF6908434FF6FC418843E96840EA07208A
:1014D000014328692F6A000140EA07300843696820
:1014E0006D6926F0AA0646EA05152943936022682D
:1014F000906120680162012084F83D000020BEE771
:1015000000B500680B4985B0884211D10A48C1690D
:1015100041F00401C161C069694600F00400049013
:10152000C02000900020019002900448FFF7D4F9F9
:1015300005B000BD0008004000100240000C014052
:1015400010B50446006891B1042904D0012200219D
:1015500000F05CFD206801225FF0040100F056FD00
:101560002068016841F001010160002010BD0122E6
:101570000021F3E7704770B50446006801694FF039
:101580000005C943890715D4C168C943890711D427
:10159000E91E0161012020772068806980072046CC
:1015A00002D0FFF7E7FF04E000F0ACF8204600F0BF
:1015B0002EF9257720680169C943490717D4C16806
:1015C000C943490713D46FF0040101610220207759
:1015D0002068806910F4407F204602D0FFF7CAFFE0
:1015E00004E000F08FF8204600F011F9257720681C
:1015F0000169C943090716D4C168C943090712D450
:101600006FF008010161042020772068C06980071D
:10161000204602D0FFF7AEFF04E000F073F820464A
:1016200000F0F5F8257720680169C943C90617D489
:10163000C168C943C90613D46FF0100101610820C5
:1016400020772068C06910F4407F204602D0FFF761
:1016500091FF04E000F056F8204600F0D8F8257716
:1016600020680169C943C90708D1C168C943C907CE
:1016700004D1891E0161204600F0E2F8206801696A
:10168000C943090609D4C168C943090605D46FF0E6
:10169000800101612046FFF7F4FD20680169C9431C
:1016A000490609D4C168C943490605D46FF0400111
:1016B0000161204600F000F920680169C9438906EC
:1016C0000BD4C168C943890607D46FF020010161BA
:1016D0002046BDE87040FFF7D5BD70BD1FB500685E
:1016E0000649884208D10220009001900120039011
:1016F00069460348FFF7F0F81FBD000000040040F2
:10170000000C0140704770B5044690F83C000D464F
:1017100001280DD0012684F83C60022084F83D00A9
:1017200042B1042A18D0082A2AD00C2A4DD139E017
:10173000022070BD206800F087FC2068816941F0BC
:10174000080181612068816921F0040181612068BC
:1017500081692A69114311E0206800F09DFC20682E
:10176000816941F4006181612068816921F48061AF
:101770008161206881692A6941EA0221816124E04E
:10178000206800F0B5FC2068C16941F00801C16122
:101790002068C16921F00401C1612068C1692A691A
:1017A000114311E0206800F0CFFC2068C16941F4CA
:1017B0000061C1612068C16921F48061C161206854
:1017C000C1692A6941EA0221C16184F83D600020B3
:1017D00084F83C0070BD10B5040003D094F83D00BF
:1017E00010B107E0012010BD002084F83C00204625
:1017F00000F00CF8022084F83D00211D206800F064
:10180000CFFB012084F83D00002010BD70477047D9
:1018100010B504460068012200F0F8FB0749206873
:10182000884203D1416C41F4004141642068016861
:1018300041F001010160002010BD0000002C0140BA
:10184000154910B5884225D10F210320FEF722FE4D
:101850001249086012480188491C018001880A2940
:1018600018D1002101800F480288521C02800E4BC3
:101870001A88521C1A800288052A0BD101800B4954
:10188000012008800A490880BDE81040102109485D
:10189000FFF705B910BD00009C00002000000020EB
:1018A000180000201A0000201C0000200600002064
:1018B0001E00002000080140704770B5040004D0ED
:1018C00094F83900002510B106E0012070BD84F8BD
:1018D0003850204600F022F8242084F8390020688F
:1018E000C16821F40051C160204600F073FC2068FB
:1018F000016921F4904101612068416921F02A01C8
:1019000041612068C16841F40051C160E563202055
:1019100084F8390084F83A00002070BD10B50068E2
:10192000114986B088421DD11048816941F4804137
:10193000816180690E4C00F4804004904FF4007087
:101940000090022001900320039069462046FEF794
:10195000C3FF00212015CDE9000102916946204610
:10196000FEF7BAFF06B010BD00380140001002407B
:10197000000801402DE9F843044690F839001F465D
:1019800016460D46202850D1A5B19EB194F83800D6
:1019900001284AD0012084F838004FF00008C4F82C
:1019A0003C80212084F83900FFF782F8A684814624
:1019B000E68426E00120BDE8F883E08C401EE08448
:1019C000A0684B46B0F5805F4FF000024FF08001F9
:1019D0002046009703D000F0B5FCE8B90DE000F018
:1019E000B1FCC8B928882168C0F3080048602069A4
:1019F00008B16D1C05E0AD1C03E0216815F8010B72
:101A00004860E08C0028D8D14B4600224021204677
:101A1000009700F097FC08B10320CCE7202084F861
:101A2000390084F838800020C5E70220C3E7FEE7CC
:101A30002DE9F04104460846FEF7FEFB2168FEF75B
:101A4000C6FBFEF702FCFEF7F7FB0546A169FEF7B1
:101A500069FBA0616169E068FEF7BCFBA16907460C
:101A6000A068FEF7B7FB064628466168FEF7B2FBA2
:101A70003146FEF757FB3946FEF754FBFEF7E5FB10
:101A800001462069606125610846BDE8F0810000DB
:101A90003EB513481149012401600021C0E9021438
:101AA00041614FF460220461C2614160FEF7FAFDBA
:101AB00018B143210BA000F082FC0320CDE9000403
:101AC0000520029069460648FEF7FAFC002803D07C
:101AD0004D2104A000F073FC3EBD00000024014035
:101AE0006C0000202E2E2F5372632F6164632E63CF
:101AF000000000002DE9F0432C4885B0816941F0D9
:101B000020018161816901F020010491816941F026
:101B100004018161816901F004010491816941F04E
:101B2000080181618069DFF8888000F00800049076
:101B3000012210214046FEF7B6FFDFF878904FF4FF
:101B40004057002239464846FEF7ADFF10200124D9
:101B5000002502268DE8710069464046FEF7BCFE6E
:101B60004FF4C15000901448CDE901046946404645
:101B7000FEF7B2FE01AA009782E870006946484667
:101B8000FEF7AAFE002201211720FFF725F81720F3
:101B9000FFF716F8002201212820FFF71DF8282062
:101BA000FFF70EF805B0BDE8F0830000001002401A
:101BB00000080140000C01400000211010B5184839
:101BC00086B01649016047210024C0E901144FF492
:101BD0007A71C0E9031444618461FFF77CFB18B19A
:101BE000442110A000F0EBFB4FF4805000906946B8
:101BF0000B48FFF7C1FB18B14A210AA000F0DFFB38
:101C0000049404A906480594FFF73DFB002803D07F
:101C1000512104A000F0D3FB06B010BD002C014000
:101C20009C0000202E2E2F5372632F74696D2E633B
:101C30000000000010B524488EB022490160012147
:101C40000024C0E901146421C0E903148461FFF792
:101C500042FB18B164211DA000F0B1FB4FF480508D
:101C6000079007A91848FFF787FB18B16A2117A04A
:101C700000F0A5FB1448FFF7AEFD18B16F2113A0CB
:101C800000F09DFB0B940BA90F480C94FFF7FBFA97
:101C900018B176210DA000F092FB6020CDE9000480
:101CA00002940C22694608480494FFF72CFD18B1F1
:101CB0007F2106A000F083FB0348FFF70FFD0EB065
:101CC00010BD000000040040DC0000202E2E2F5329
:101CD00072632F74696D2E630000000010B5184800
:101CE0008CB016490024C0E900144FF6FF71C0E91A
:101CF0000241046184610320CDE900040120CDE9A3
:101D0000020406210491CDE90540CDE90741694669
:101D10000B48FFF7AAFB18B19C210AA000F04FFB6B
:101D2000099409A906480A94FFF7ADFA002803D0E0
:101D3000A32104A000F043FB0CB010BD000800403C
:101D40001C0100202E2E2F5372632F74696D2E6399
:101D5000000000000D4810B50B4901604FF4E1315F
:101D60004160002181600C22C160C0E904128161E0
:101D7000C161FFF7A2FD002805D0BDE81040422157
:101D800003A000F01CBB10BD003801405C01002026
:101D90002E2E2F5372632F75736172742E630000A1
:101DA000FEE700000C210148FFF732BDDC000020F7
:101DB00070470907090E002806DA00F00F0000F14D
:101DC000E02080F8141D704700F1E02080F8001436
:101DD000704741608260C36000210161416181619F
:101DE000704710B504460846FEF726FA206010BD7D
:101DF00070470000022803D0042805D00020704757
:101E00004FF08040406A01E00148006800B270472E
:101E1000240800407047000000B500F095FB014920
:101E2000086000BD4004004070B51D4801880129CC
:101E300034D1002606801C491A4808600420FFF7A8
:101E4000D9FF1A49086009681748FFF7F1FD1849DA
:101E500008600868174C20600968174801250029A8
:101E600004DAC0F8B061C0F8B45103E0C0F8B05172
:101E7000C0F8B461206800F098FA20602068FFF78D
:101E8000CBFF0E48016840F62232914206DD006821
:101E900040F6B241884201DA0948058070BD000071
:101EA0001E0000200000FA44500000200C0000201A
:101EB00014000020100000200080214200000020BB
:101EC0000800002010B5FEF7F9FDBDE81040FFF74F
:101ED000D4B930B593B001210804CDE90010002534
:101EE000029502240491CDE907404FF4E0100990D7
:101EF0006846FFF71FF800B1FEE70AA90F2081E846
:101F000031004FF48060CDE90D0502210AA8FEF7EB
:101F10000BFF00B1FEE74FF4004011900F940FA8A3
:101F2000FEF78CFE00B1FEE7FEF7A8FF4FF47A71D2
:101F3000B0FBF1F0FFF78DF90420FFF77DF90022E7
:101F40001146501EFEF748FE13B030BD0D48016823
:101F500041F00101016041680B4A11404160016894
:101F60000A4A11400160016821F480210160416842
:101F700021F4FE0141604FF41F0181600449C00358
:101F800008607047001002400000FFF8FFFFF6FEF7
:101F900008ED00E00148FFF7EEBA00009C000020C9
:101FA000F0B50268164B174C174D4FF0804798421A
:101FB00005D0B84203D0A04201D0A84203D122F0FC
:101FC00070064A683243984205D0B84203D0A04216
:101FD00001D0A84203D122F44074CA68224322F0FF
:101FE00080044A69224302608A68C2620A68826287
:101FF000984201D10969016301214161F0BD0000EE
:10200000002C0140000400400008004010B50123EE
:10201000046A8B409C430462036A8A401343036250
:1020200010BD10B5846842EA032224F47F440A43B9
:102030002243826010BD826822F070020A4342F09F
:10204000070181607047000030B5026A22F001028A
:102050000262026A4368846924F073050C682C43A9
:1020600022F002058A682A430A4DA8420BD122F0C9
:102070000805CA6823F440732A434D6922F004021C
:102080001D438B692B43436084614968416302624D
:1020900030BD0000002C014030B5026A22F0100271
:1020A0000262026A436884690D6824F4E64444EAE3
:1020B00005248D6822F0200242EA05120B4DA84249
:1020C0000ED1CD6822F0800242EA05124D6923F458
:1020D000406343EA85038D6922F0400243EA8503A9
:1020E0004360846149688163026230BD002C014015
:1020F00030B5026A22F480720262036A4268C469DF
:1021000023F4007324F073050C682C438D6843EAB4
:1021100005230C4DA8420ED1CD6823F4006343EA99
:1021200005234D6922F4405242EA05128D6923F4D9
:10213000806342EA05124260C4614968C163036278
:1021400030BD0000002C014030B5026A22F48052FC
:102150000262046A4268C3690D6823F4E64343EAF5
:1021600005238D6824F4005444EA0534064DA84242
:1021700004D14D6922F4804242EA85124260C36173
:1021800049680164046230BD002C014010B5036A47
:10219000046A24F001040462846924F0F00444EA2F
:1021A000021423F00A020A438461026210BD10B5D2
:1021B000036A23F0100303628369046A23F4704303
:1021C00043EA023224F0A00343EA01118261016272
:1021D00010BD00002DE9F041044600680169E26885
:1021E00021F44051114301612169A06808436169EC
:1021F00008432168CA6841F20C639A430243CA60EB
:1022000020684169A26921F44071114341614C4940
:1022100020686425322688423CD1FEF745FE00EB5B
:10222000C00101EB001061688900B0FBF1F7FEF717
:102230003BFE00EBC00101EB00106168B046890075
:10224000B0FBF1F0B0FBF5F06FF01801484307EB7D
:10225000800106EB0110B0FBF5F000F0F006FEF790
:1022600023FE00EBC00101EB001061688900B0FBA8
:10227000F1F0B0FBF5F006EB0016FEF715FE00EBF3
:10228000C00101EB001061688900B0FBF1F7FEF7B7
:102290000BFE3BE0FEF7F8FD00EBC00101EB001088
:1022A00061688900B0FBF1F7FEF7EEFD00EBC001BD
:1022B00001EB00106168B0468900B0FBF1F0B0FBA3
:1022C000F5F06FF01801484307EB800106EB0110B1
:1022D000B0FBF5F000F0F006FEF7D6FD00EBC00114
:1022E00001EB001061688900B0FBF1F0B0FBF5F084
:1022F00006EB0016FEF7C8FD00EBC00101EB001075
:1023000061688900B0FBF1F7FEF7BEFD00EBC0018C
:1023100001EB001061688900B0FBF1F0B0FBF5F053
:102320006FF01801484307EB800108EB0110B0FB88
:10233000F5F0216800F00F0030448860BDE8F081BE
:10234000003801402DE9F041984617460E460446F4
:10235000069D1DE0681C1BD02DB1FEF7A9FBA0EB6C
:102360000800A84214D92068C16821F4D071C16066
:102370002068416921F001014161202084F8390081
:1023800084F83A00002084F838000320BDE8F0818A
:102390002068006836EA000004D00020B842D9D096
:1023A0000020F3E70120F9E7FEE763214A4290426B
:1023B00001DA104670476328FCDD08467047FEE7E7
:1023C000014A024900F013B811240008300000202F
:1023D00002E008C8121F08C1002AFAD170477047EE
:1023E000002001E001C1121F002AFBD170472DE936
:1023F000F04116460F460446002503E03946B04733
:10240000641C6D1C20780028F8D12846BDE8F081B6
:1024100013B54FF6FF73012269460248FFF7AAFA87
:1024200000981CBD5C010020FEF750FBFFF751FD3A
:10243000FFF760FBFFF78EFCFFF72AFBFFF7BEFB01
:10244000FFF74CFCFFF7F6FBFDF78EFFFFF7AAFC4A
:102450002648FEF785FF2648FEF782FF2548FEF74F
:102460007FFF18212248FFF76BF80023224A4FF024
:102470007E512248FFF7ADFC21A0FFF7A1FF40F6F7
:102480001C412E48FFF7ADFC00262D4D2D4C012799
:1024900020780128FCD1A088C8B1A0880128F7D1F4
:1024A00060880128F4D166800420FFF7A3FCA060B7
:1024B000A1681248FFF7BCFA20612069E06020693A
:1024C000002807DAC5F8B061C5F8B47106E0FFF777
:1024D000ABFCDDE7C5F8B071C5F8B461E068FFF7A3
:1024E00064FFE060E068FFF797FCD1E79C00002004
:1024F0001C010020DC0000200AD7A33B5000002074
:102500002D2D2D2DD5E2CAC7D2BBB8F6414443B517
:10251000A5CDA8B5C0B5E7D1B9B2C9BCAF2BB0B491
:10252000BCFCD6D0B6CF2BB6A8CAB1C6F73120CAEC
:10253000B5D1E92D2D2D2D2D0A00000034000020ED
:102540000080214204000020002800DA4042704749
:102550000000000000000000010203040607080953
:10256000000000000102030488250008000000208C
:1025700034000000D0230008BC25000834000020EF
:102580006C050000E02300080000000000000000CF
:10259000000000000000000000000000000000003B
:1025A000000000000000000001000000100000001A
:0C25B0000000000000A24A04000000002F
:04000005080000ED02
:00000001FF
